{
    "abi": [
        {
            "type": "function",
            "name": "completeShipment",
            "inputs": [
                {
                    "name": "_sender",
                    "type": "address",
                    "internalType": "address"
                },
                {
                    "name": "_receiver",
                    "type": "address",
                    "internalType": "address"
                },
                {
                    "name": "_index",
                    "type": "uint256",
                    "internalType": "uint256"
                }
            ],
            "outputs": [],
            "stateMutability": "nonpayable"
        },
        {
            "type": "function",
            "name": "createShipment",
            "inputs": [
                {
                    "name": "_receiver",
                    "type": "address",
                    "internalType": "address"
                },
                {
                    "name": "_pickupTime",
                    "type": "uint256",
                    "internalType": "uint256"
                },
                {
                    "name": "_distance",
                    "type": "uint256",
                    "internalType": "uint256"
                },
                {
                    "name": "_price",
                    "type": "uint256",
                    "internalType": "uint256"
                }
            ],
            "outputs": [],
            "stateMutability": "payable"
        },
        {
            "type": "function",
            "name": "getShipment",
            "inputs": [
                {
                    "name": "_sender",
                    "type": "address",
                    "internalType": "address"
                },
                {
                    "name": "_index",
                    "type": "uint256",
                    "internalType": "uint256"
                }
            ],
            "outputs": [
                {
                    "name": "",
                    "type": "address",
                    "internalType": "address"
                },
                {
                    "name": "",
                    "type": "address",
                    "internalType": "address"
                },
                {
                    "name": "",
                    "type": "uint256",
                    "internalType": "uint256"
                },
                {
                    "name": "",
                    "type": "uint256",
                    "internalType": "uint256"
                },
                {
                    "name": "",
                    "type": "uint256",
                    "internalType": "uint256"
                },
                {
                    "name": "",
                    "type": "uint256",
                    "internalType": "uint256"
                },
                {
                    "name": "",
                    "type": "uint8",
                    "internalType": "enum SupplyChain.ShipmentStatus"
                },
                {
                    "name": "",
                    "type": "bool",
                    "internalType": "bool"
                }
            ],
            "stateMutability": "view"
        },
        {
            "type": "function",
            "name": "shipmentCount",
            "inputs": [],
            "outputs": [
                {
                    "name": "",
                    "type": "uint256",
                    "internalType": "uint256"
                }
            ],
            "stateMutability": "view"
        },
        {
            "type": "function",
            "name": "shipments",
            "inputs": [
                {
                    "name": "",
                    "type": "address",
                    "internalType": "address"
                },
                {
                    "name": "",
                    "type": "uint256",
                    "internalType": "uint256"
                }
            ],
            "outputs": [
                {
                    "name": "sender",
                    "type": "address",
                    "internalType": "address"
                },
                {
                    "name": "receiver",
                    "type": "address",
                    "internalType": "address"
                },
                {
                    "name": "pickupTime",
                    "type": "uint256",
                    "internalType": "uint256"
                },
                {
                    "name": "deliveryTime",
                    "type": "uint256",
                    "internalType": "uint256"
                },
                {
                    "name": "distance",
                    "type": "uint256",
                    "internalType": "uint256"
                },
                {
                    "name": "price",
                    "type": "uint256",
                    "internalType": "uint256"
                },
                {
                    "name": "status",
                    "type": "uint8",
                    "internalType": "enum SupplyChain.ShipmentStatus"
                },
                {
                    "name": "isPaid",
                    "type": "bool",
                    "internalType": "bool"
                }
            ],
            "stateMutability": "view"
        },
        {
            "type": "function",
            "name": "startShipment",
            "inputs": [
                {
                    "name": "_sender",
                    "type": "address",
                    "internalType": "address"
                },
                {
                    "name": "_receiver",
                    "type": "address",
                    "internalType": "address"
                },
                {
                    "name": "_index",
                    "type": "uint256",
                    "internalType": "uint256"
                }
            ],
            "outputs": [],
            "stateMutability": "nonpayable"
        },
        {
            "type": "event",
            "name": "ShipmentCreated",
            "inputs": [
                {
                    "name": "sender",
                    "type": "address",
                    "indexed": true,
                    "internalType": "address"
                },
                {
                    "name": "receiver",
                    "type": "address",
                    "indexed": true,
                    "internalType": "address"
                },
                {
                    "name": "pickupTime",
                    "type": "uint256",
                    "indexed": false,
                    "internalType": "uint256"
                },
                {
                    "name": "distance",
                    "type": "uint256",
                    "indexed": false,
                    "internalType": "uint256"
                },
                {
                    "name": "price",
                    "type": "uint256",
                    "indexed": false,
                    "internalType": "uint256"
                }
            ],
            "anonymous": false
        },
        {
            "type": "event",
            "name": "ShipmentDelivered",
            "inputs": [
                {
                    "name": "sender",
                    "type": "address",
                    "indexed": true,
                    "internalType": "address"
                },
                {
                    "name": "receiver",
                    "type": "address",
                    "indexed": true,
                    "internalType": "address"
                },
                {
                    "name": "deliveryTime",
                    "type": "uint256",
                    "indexed": false,
                    "internalType": "uint256"
                }
            ],
            "anonymous": false
        },
        {
            "type": "event",
            "name": "ShipmentInTransit",
            "inputs": [
                {
                    "name": "sender",
                    "type": "address",
                    "indexed": true,
                    "internalType": "address"
                },
                {
                    "name": "receiver",
                    "type": "address",
                    "indexed": true,
                    "internalType": "address"
                },
                {
                    "name": "pickupTime",
                    "type": "uint256",
                    "indexed": false,
                    "internalType": "uint256"
                }
            ],
            "anonymous": false
        },
        {
            "type": "event",
            "name": "ShipmentPaid",
            "inputs": [
                {
                    "name": "sender",
                    "type": "address",
                    "indexed": true,
                    "internalType": "address"
                },
                {
                    "name": "receiver",
                    "type": "address",
                    "indexed": true,
                    "internalType": "address"
                },
                {
                    "name": "amount",
                    "type": "uint256",
                    "indexed": false,
                    "internalType": "uint256"
                }
            ],
            "anonymous": false
        },
        {
            "type": "error",
            "name": "InvalidReceiver",
            "inputs": []
        },
        {
            "type": "error",
            "name": "PaymentDoesNotMatchPrice",
            "inputs": [
                {
                    "name": "amount",
                    "type": "uint256",
                    "internalType": "uint256"
                },
                {
                    "name": "price",
                    "type": "uint256",
                    "internalType": "uint256"
                },
                {
                    "name": "note",
                    "type": "string",
                    "internalType": "string"
                }
            ]
        },
        {
            "type": "error",
            "name": "ShipmentIsAlreadypaid",
            "inputs": []
        },
        {
            "type": "error",
            "name": "ShipmentNotInIntendedStatus",
            "inputs": [
                {
                    "name": "note",
                    "type": "string",
                    "internalType": "string"
                }
            ]
        }
    ],
    "bytecode": {
        "object": "0x6080604052348015600e575f5ffd5b506111698061001c5f395ff3fe608060405260043610610054575f3560e01c8063179a878c146100585780635667e02f146100805780637ff5265d146100c35780638365da54146100eb578063aace20b71461012e578063cbc4b18114610158575b5f5ffd5b348015610063575f5ffd5b5061007e60048036038101906100799190610c7b565b610174565b005b34801561008b575f5ffd5b506100a660048036038101906100a19190610ccb565b6104ae565b6040516100ba989796959493929190610db4565b60405180910390f35b3480156100ce575f5ffd5b506100e960048036038101906100e49190610c7b565b610562565b005b3480156100f6575f5ffd5b50610111600480360381019061010c9190610ccb565b610758565b604051610125989796959493929190610db4565b60405180910390f35b348015610139575f5ffd5b50610142610934565b60405161014f9190610e30565b60405180910390f35b610172600480360381019061016d9190610e49565b61093a565b005b5f5f5f8573ffffffffffffffffffffffffffffffffffffffff1673ffffffffffffffffffffffffffffffffffffffff1681526020019081526020015f2082815481106101c3576101c2610ead565b5b905f5260205f20906007020190508273ffffffffffffffffffffffffffffffffffffffff16816001015f9054906101000a900473ffffffffffffffffffffffffffffffffffffffff1673ffffffffffffffffffffffffffffffffffffffff1614610259576040517f1e4ec46b00000000000000000000000000000000000000000000000000000000815260040160405180910390fd5b6001600281111561026d5761026c610d27565b5b816006015f9054906101000a900460ff1660028111156102905761028f610d27565b5b146102d0576040517f5186bf690000000000000000000000000000000000000000000000000000000081526004016102c790610f5a565b60405180910390fd5b8060060160019054906101000a900460ff1615610319576040517ffd5fdf4600000000000000000000000000000000000000000000000000000000815260040160405180910390fd5b6002816006015f6101000a81548160ff021916908360028111156103405761033f610d27565b5b02179055504281600301819055505f81600501549050815f015f9054906101000a900473ffffffffffffffffffffffffffffffffffffffff1673ffffffffffffffffffffffffffffffffffffffff166108fc8290811502906040515f60405180830381858888f193505050501580156103bb573d5f5f3e3d5ffd5b5060018260060160016101000a81548160ff0219169083151502179055508373ffffffffffffffffffffffffffffffffffffffff168573ffffffffffffffffffffffffffffffffffffffff167f3746ccceb54f44c9b0ee0120e596168d07ec9f6ca303cfdd9810d3b2e2686a2e846003015460405161043a9190610e30565b60405180910390a38373ffffffffffffffffffffffffffffffffffffffff168573ffffffffffffffffffffffffffffffffffffffff167f2b6f2473aebafaf8d0889669490135928ec4454d2e29a103fd39693bbca6aef18360405161049f9190610e30565b60405180910390a35050505050565b5f602052815f5260405f2081815481106104c6575f80fd5b905f5260205f2090600702015f9150915050805f015f9054906101000a900473ffffffffffffffffffffffffffffffffffffffff1690806001015f9054906101000a900473ffffffffffffffffffffffffffffffffffffffff1690806002015490806003015490806004015490806005015490806006015f9054906101000a900460ff16908060060160019054906101000a900460ff16905088565b5f5f5f8573ffffffffffffffffffffffffffffffffffffffff1673ffffffffffffffffffffffffffffffffffffffff1681526020019081526020015f2082815481106105b1576105b0610ead565b5b905f5260205f20906007020190508273ffffffffffffffffffffffffffffffffffffffff16816001015f9054906101000a900473ffffffffffffffffffffffffffffffffffffffff1673ffffffffffffffffffffffffffffffffffffffff1614610647576040517f1e4ec46b00000000000000000000000000000000000000000000000000000000815260040160405180910390fd5b5f600281111561065a57610659610d27565b5b816006015f9054906101000a900460ff16600281111561067d5761067c610d27565b5b146106bd576040517f5186bf690000000000000000000000000000000000000000000000000000000081526004016106b490610fc2565b60405180910390fd5b6001816006015f6101000a81548160ff021916908360028111156106e4576106e3610d27565b5b02179055508273ffffffffffffffffffffffffffffffffffffffff168473ffffffffffffffffffffffffffffffffffffffff167faafab9f94340179ff9cefd29621e1772a4b8efab8023163838f1b0a8f6ce5df5836002015460405161074a9190610e30565b60405180910390a350505050565b5f5f5f5f5f5f5f5f5f5f5f8c73ffffffffffffffffffffffffffffffffffffffff1673ffffffffffffffffffffffffffffffffffffffff1681526020019081526020015f208a815481106107af576107ae610ead565b5b905f5260205f209060070201604051806101000160405290815f82015f9054906101000a900473ffffffffffffffffffffffffffffffffffffffff1673ffffffffffffffffffffffffffffffffffffffff1673ffffffffffffffffffffffffffffffffffffffff168152602001600182015f9054906101000a900473ffffffffffffffffffffffffffffffffffffffff1673ffffffffffffffffffffffffffffffffffffffff1673ffffffffffffffffffffffffffffffffffffffff16815260200160028201548152602001600382015481526020016004820154815260200160058201548152602001600682015f9054906101000a900460ff1660028111156108bc576108bb610d27565b5b60028111156108ce576108cd610d27565b5b81526020016006820160019054906101000a900460ff1615151515815250509050805f015181602001518260400151836060015184608001518560a001518660c001518760e0015198509850985098509850985098509850509295985092959890939650565b60015481565b8034146109805734816040517f73352ff4000000000000000000000000000000000000000000000000000000008152600401610977929190611050565b60405180910390fd5b5f6040518061010001604052803373ffffffffffffffffffffffffffffffffffffffff1681526020018673ffffffffffffffffffffffffffffffffffffffff1681526020018581526020015f81526020018481526020018381526020015f60028111156109f0576109ef610d27565b5b81526020015f151581525090505f5f3373ffffffffffffffffffffffffffffffffffffffff1673ffffffffffffffffffffffffffffffffffffffff1681526020019081526020015f2081908060018154018082558091505060019003905f5260205f2090600702015f909190919091505f820151815f015f6101000a81548173ffffffffffffffffffffffffffffffffffffffff021916908373ffffffffffffffffffffffffffffffffffffffff1602179055506020820151816001015f6101000a81548173ffffffffffffffffffffffffffffffffffffffff021916908373ffffffffffffffffffffffffffffffffffffffff16021790555060408201518160020155606082015181600301556080820151816004015560a0820151816005015560c0820151816006015f6101000a81548160ff02191690836002811115610b3c57610b3b610d27565b5b021790555060e08201518160060160016101000a81548160ff021916908315150217905550505060015f815480929190610b75906110b7565b91905055508473ffffffffffffffffffffffffffffffffffffffff163373ffffffffffffffffffffffffffffffffffffffff167f5001b34ecf2db5b7bbeddcbbe761ec9ecadcc7638018b98ce3e24995b0e946b6868686604051610bdb939291906110fe565b60405180910390a35050505050565b5f5ffd5b5f73ffffffffffffffffffffffffffffffffffffffff82169050919050565b5f610c1782610bee565b9050919050565b610c2781610c0d565b8114610c31575f5ffd5b50565b5f81359050610c4281610c1e565b92915050565b5f819050919050565b610c5a81610c48565b8114610c64575f5ffd5b50565b5f81359050610c7581610c51565b92915050565b5f5f5f60608486031215610c9257610c91610bea565b5b5f610c9f86828701610c34565b9350506020610cb086828701610c34565b9250506040610cc186828701610c67565b9150509250925092565b5f5f60408385031215610ce157610ce0610bea565b5b5f610cee85828601610c34565b9250506020610cff85828601610c67565b9150509250929050565b610d1281610c0d565b82525050565b610d2181610c48565b82525050565b7f4e487b71000000000000000000000000000000000000000000000000000000005f52602160045260245ffd5b60038110610d6557610d64610d27565b5b50565b5f819050610d7582610d54565b919050565b5f610d8482610d68565b9050919050565b610d9481610d7a565b82525050565b5f8115159050919050565b610dae81610d9a565b82525050565b5f61010082019050610dc85f83018b610d09565b610dd5602083018a610d09565b610de26040830189610d18565b610def6060830188610d18565b610dfc6080830187610d18565b610e0960a0830186610d18565b610e1660c0830185610d8b565b610e2360e0830184610da5565b9998505050505050505050565b5f602082019050610e435f830184610d18565b92915050565b5f5f5f5f60808587031215610e6157610e60610bea565b5b5f610e6e87828801610c34565b9450506020610e7f87828801610c67565b9350506040610e9087828801610c67565b9250506060610ea187828801610c67565b91505092959194509250565b7f4e487b71000000000000000000000000000000000000000000000000000000005f52603260045260245ffd5b5f82825260208201905092915050565b7f536869706d656e74206973206e6f7420696e20496e2d5472616e7369742073745f8201527f6174650000000000000000000000000000000000000000000000000000000000602082015250565b5f610f44602383610eda565b9150610f4f82610eea565b604082019050919050565b5f6020820190508181035f830152610f7181610f38565b9050919050565b7f536869706d656e74206973206e6f7420696e2050656e64696e672073746174655f82015250565b5f610fac602083610eda565b9150610fb782610f78565b602082019050919050565b5f6020820190508181035f830152610fd981610fa0565b9050919050565b7f5061796d656e7420646f6573206e6f74206d61746368207468652070726963655f8201527f2075736572207365740000000000000000000000000000000000000000000000602082015250565b5f61103a602983610eda565b915061104582610fe0565b604082019050919050565b5f6060820190506110635f830185610d18565b6110706020830184610d18565b81810360408301526110818161102e565b90509392505050565b7f4e487b71000000000000000000000000000000000000000000000000000000005f52601160045260245ffd5b5f6110c182610c48565b91507fffffffffffffffffffffffffffffffffffffffffffffffffffffffffffffffff82036110f3576110f261108a565b5b600182019050919050565b5f6060820190506111115f830186610d18565b61111e6020830185610d18565b61112b6040830184610d18565b94935050505056fea2646970667358221220f0980c7fd78f7f01f5029b53ff2988b70bfc380a2ec95bb6c895d2395cfe34e864736f6c634300081c0033",
        "linkReferences": {}
    },
    "methodIdentifiers": {
        "completeShipment(address,address,uint256)": "179a878c",
        "createShipment(address,uint256,uint256,uint256)": "cbc4b181",
        "getShipment(address,uint256)": "8365da54",
        "shipmentCount()": "aace20b7",
        "shipments(address,uint256)": "5667e02f",
        "startShipment(address,address,uint256)": "7ff5265d"
    },
    "id": 21
}