{
    "abi": [
        {
            "type": "constructor",
            "inputs": [
                {
                    "name": "_sender",
                    "type": "address",
                    "internalType": "address"
                }
            ],
            "stateMutability": "nonpayable"
        },
        {
            "type": "function",
            "name": "completeShipment",
            "inputs": [
                {
                    "name": "_index",
                    "type": "uint256",
                    "internalType": "uint256"
                }
            ],
            "outputs": [],
            "stateMutability": "nonpayable"
        },
        {
            "type": "function",
            "name": "createShipment",
            "inputs": [
                {
                    "name": "_distance",
                    "type": "uint256",
                    "internalType": "uint256"
                },
                {
                    "name": "_price",
                    "type": "uint256",
                    "internalType": "uint256"
                }
            ],
            "outputs": [],
            "stateMutability": "payable"
        },
        {
            "type": "function",
            "name": "getShipment",
            "inputs": [
                {
                    "name": "_user",
                    "type": "address",
                    "internalType": "address"
                },
                {
                    "name": "_index",
                    "type": "uint256",
                    "internalType": "uint256"
                }
            ],
            "outputs": [
                {
                    "name": "",
                    "type": "address",
                    "internalType": "address"
                },
                {
                    "name": "",
                    "type": "address",
                    "internalType": "address"
                },
                {
                    "name": "",
                    "type": "uint256",
                    "internalType": "uint256"
                },
                {
                    "name": "",
                    "type": "uint256",
                    "internalType": "uint256"
                },
                {
                    "name": "",
                    "type": "uint256",
                    "internalType": "uint256"
                },
                {
                    "name": "",
                    "type": "uint256",
                    "internalType": "uint256"
                },
                {
                    "name": "",
                    "type": "uint8",
                    "internalType": "enum SupplyChain.ShipmentStatus"
                },
                {
                    "name": "",
                    "type": "bool",
                    "internalType": "bool"
                }
            ],
            "stateMutability": "view"
        },
        {
            "type": "function",
            "name": "getShipmentCount",
            "inputs": [
                {
                    "name": "_receiver",
                    "type": "address",
                    "internalType": "address"
                }
            ],
            "outputs": [
                {
                    "name": "",
                    "type": "uint256",
                    "internalType": "uint256"
                }
            ],
            "stateMutability": "view"
        },
        {
            "type": "function",
            "name": "s_sender",
            "inputs": [],
            "outputs": [
                {
                    "name": "",
                    "type": "address",
                    "internalType": "address"
                }
            ],
            "stateMutability": "view"
        },
        {
            "type": "function",
            "name": "s_shipments",
            "inputs": [
                {
                    "name": "",
                    "type": "address",
                    "internalType": "address"
                },
                {
                    "name": "",
                    "type": "uint256",
                    "internalType": "uint256"
                }
            ],
            "outputs": [
                {
                    "name": "sender",
                    "type": "address",
                    "internalType": "address"
                },
                {
                    "name": "receiver",
                    "type": "address",
                    "internalType": "address"
                },
                {
                    "name": "pickupTime",
                    "type": "uint256",
                    "internalType": "uint256"
                },
                {
                    "name": "deliveryTime",
                    "type": "uint256",
                    "internalType": "uint256"
                },
                {
                    "name": "distance",
                    "type": "uint256",
                    "internalType": "uint256"
                },
                {
                    "name": "price",
                    "type": "uint256",
                    "internalType": "uint256"
                },
                {
                    "name": "status",
                    "type": "uint8",
                    "internalType": "enum SupplyChain.ShipmentStatus"
                },
                {
                    "name": "isPaid",
                    "type": "bool",
                    "internalType": "bool"
                }
            ],
            "stateMutability": "view"
        },
        {
            "type": "function",
            "name": "startShipment",
            "inputs": [
                {
                    "name": "_index",
                    "type": "uint256",
                    "internalType": "uint256"
                }
            ],
            "outputs": [],
            "stateMutability": "nonpayable"
        },
        {
            "type": "event",
            "name": "SupplyChain__ShipmentCreated",
            "inputs": [
                {
                    "name": "sender",
                    "type": "address",
                    "indexed": true,
                    "internalType": "address"
                },
                {
                    "name": "receiver",
                    "type": "address",
                    "indexed": true,
                    "internalType": "address"
                },
                {
                    "name": "distance",
                    "type": "uint256",
                    "indexed": false,
                    "internalType": "uint256"
                },
                {
                    "name": "price",
                    "type": "uint256",
                    "indexed": false,
                    "internalType": "uint256"
                }
            ],
            "anonymous": false
        },
        {
            "type": "event",
            "name": "SupplyChain__ShipmentDelivered",
            "inputs": [
                {
                    "name": "sender",
                    "type": "address",
                    "indexed": true,
                    "internalType": "address"
                },
                {
                    "name": "receiver",
                    "type": "address",
                    "indexed": true,
                    "internalType": "address"
                },
                {
                    "name": "deliveryTime",
                    "type": "uint256",
                    "indexed": false,
                    "internalType": "uint256"
                }
            ],
            "anonymous": false
        },
        {
            "type": "event",
            "name": "SupplyChain__ShipmentInTransit",
            "inputs": [
                {
                    "name": "sender",
                    "type": "address",
                    "indexed": true,
                    "internalType": "address"
                },
                {
                    "name": "receiver",
                    "type": "address",
                    "indexed": true,
                    "internalType": "address"
                },
                {
                    "name": "pickupTime",
                    "type": "uint256",
                    "indexed": false,
                    "internalType": "uint256"
                }
            ],
            "anonymous": false
        },
        {
            "type": "event",
            "name": "SupplyChain__ShipmentPaid",
            "inputs": [
                {
                    "name": "sender",
                    "type": "address",
                    "indexed": true,
                    "internalType": "address"
                },
                {
                    "name": "receiver",
                    "type": "address",
                    "indexed": true,
                    "internalType": "address"
                },
                {
                    "name": "amount",
                    "type": "uint256",
                    "indexed": false,
                    "internalType": "uint256"
                }
            ],
            "anonymous": false
        },
        {
            "type": "error",
            "name": "ReentrancyGuardReentrantCall",
            "inputs": []
        },
        {
            "type": "error",
            "name": "SupplyChain__InsufficientEthSent",
            "inputs": []
        },
        {
            "type": "error",
            "name": "SupplyChain__NoShipmentExists",
            "inputs": []
        },
        {
            "type": "error",
            "name": "SupplyChain__PaymentFailed",
            "inputs": []
        },
        {
            "type": "error",
            "name": "SupplyChain__ShipmentIsAlreadyPaid",
            "inputs": []
        },
        {
            "type": "error",
            "name": "SupplyChain__ShipmentNotInCorrectStatus",
            "inputs": []
        }
    ],
    "bytecode": {
        "object": "0x60a060405234801561000f575f5ffd5b506040516112fc3803806112fc833981810160405281019061003191906100d0565b60015f819055508073ffffffffffffffffffffffffffffffffffffffff1660808173ffffffffffffffffffffffffffffffffffffffff1681525050506100fb565b5f5ffd5b5f73ffffffffffffffffffffffffffffffffffffffff82169050919050565b5f61009f82610076565b9050919050565b6100af81610095565b81146100b9575f5ffd5b50565b5f815190506100ca816100a6565b92915050565b5f602082840312156100e5576100e4610072565b5b5f6100f2848285016100bc565b91505092915050565b6080516111bf61013d5f395f8181610361015281816107770152818161098501528181610be701528181610cc001528181610d490152610dc901526111bf5ff3fe60806040526004361061006f575f3560e01c8063b7dfd93d1161004d578063b7dfd93d14610121578063c69e162f1461015d578063f15456b514610179578063f3a53fb0146101a15761006f565b806309abeffa146100735780638365da541461009b5780638b1b706a146100de575b5f5ffd5b34801561007e575f5ffd5b5061009960048036038101906100949190610e6f565b6101cb565b005b3480156100a6575f5ffd5b506100c160048036038101906100bc9190610ef4565b6103d6565b6040516100d5989796959493929190610fdd565b60405180910390f35b3480156100e9575f5ffd5b5061010460048036038101906100ff9190610ef4565b610631565b604051610118989796959493929190610fdd565b60405180910390f35b34801561012c575f5ffd5b5061014760048036038101906101429190611059565b6106e6565b6040516101549190611084565b60405180910390f35b6101776004803603810190610172919061109d565b61072f565b005b348015610184575f5ffd5b5061019f600480360381019061019a9190610e6f565b6109f8565b005b3480156101ac575f5ffd5b506101b5610dc7565b6040516101c291906110db565b60405180910390f35b5f60015f3373ffffffffffffffffffffffffffffffffffffffff1673ffffffffffffffffffffffffffffffffffffffff1681526020019081526020015f20805490509050808210610248576040517f58d167d400000000000000000000000000000000000000000000000000000000815260040160405180910390fd5b5f60015f3373ffffffffffffffffffffffffffffffffffffffff1673ffffffffffffffffffffffffffffffffffffffff1681526020019081526020015f208381548110610298576102976110f4565b5b905f5260205f20906007020190505f60028111156102b9576102b8610f50565b5b816006015f9054906101000a900460ff1660028111156102dc576102db610f50565b5b14610313576040517fba971e2a00000000000000000000000000000000000000000000000000000000815260040160405180910390fd5b4281600201819055506001816006015f6101000a81548160ff0219169083600281111561034357610342610f50565b5b02179055503373ffffffffffffffffffffffffffffffffffffffff167f000000000000000000000000000000000000000000000000000000000000000073ffffffffffffffffffffffffffffffffffffffff167f828aeb4a4e3af690a455ee477af5d840b48d0c7a18041cf5bbdd149a035d562683600201546040516103c99190611084565b60405180910390a3505050565b5f5f5f5f5f5f5f5f5f60015f8c73ffffffffffffffffffffffffffffffffffffffff1673ffffffffffffffffffffffffffffffffffffffff1681526020019081526020015f20805490509050808a1061045b576040517f58d167d400000000000000000000000000000000000000000000000000000000815260040160405180910390fd5b5f60015f8d73ffffffffffffffffffffffffffffffffffffffff1673ffffffffffffffffffffffffffffffffffffffff1681526020019081526020015f208b815481106104ab576104aa6110f4565b5b905f5260205f209060070201604051806101000160405290815f82015f9054906101000a900473ffffffffffffffffffffffffffffffffffffffff1673ffffffffffffffffffffffffffffffffffffffff1673ffffffffffffffffffffffffffffffffffffffff168152602001600182015f9054906101000a900473ffffffffffffffffffffffffffffffffffffffff1673ffffffffffffffffffffffffffffffffffffffff1673ffffffffffffffffffffffffffffffffffffffff16815260200160028201548152602001600382015481526020016004820154815260200160058201548152602001600682015f9054906101000a900460ff1660028111156105b8576105b7610f50565b5b60028111156105ca576105c9610f50565b5b81526020016006820160019054906101000a900460ff1615151515815250509050805f015181602001518260400151836060015184608001518560a001518660c001518760e001519950995099509950995099509950995050509295985092959890939650565b6001602052815f5260405f20818154811061064a575f80fd5b905f5260205f2090600702015f9150915050805f015f9054906101000a900473ffffffffffffffffffffffffffffffffffffffff1690806001015f9054906101000a900473ffffffffffffffffffffffffffffffffffffffff1690806002015490806003015490806004015490806005015490806006015f9054906101000a900460ff16908060060160019054906101000a900460ff16905088565b5f60015f8373ffffffffffffffffffffffffffffffffffffffff1673ffffffffffffffffffffffffffffffffffffffff1681526020019081526020015f20805490509050919050565b803414610768576040517fb45f193600000000000000000000000000000000000000000000000000000000815260040160405180910390fd5b5f6040518061010001604052807f000000000000000000000000000000000000000000000000000000000000000073ffffffffffffffffffffffffffffffffffffffff1681526020013373ffffffffffffffffffffffffffffffffffffffff1681526020015f81526020015f81526020018481526020018381526020015f60028111156107f8576107f7610f50565b5b81526020015f1515815250905060015f3373ffffffffffffffffffffffffffffffffffffffff1673ffffffffffffffffffffffffffffffffffffffff1681526020019081526020015f2081908060018154018082558091505060019003905f5260205f2090600702015f909190919091505f820151815f015f6101000a81548173ffffffffffffffffffffffffffffffffffffffff021916908373ffffffffffffffffffffffffffffffffffffffff1602179055506020820151816001015f6101000a81548173ffffffffffffffffffffffffffffffffffffffff021916908373ffffffffffffffffffffffffffffffffffffffff16021790555060408201518160020155606082015181600301556080820151816004015560a0820151816005015560c0820151816006015f6101000a81548160ff0219169083600281111561094557610944610f50565b5b021790555060e08201518160060160016101000a81548160ff02191690831515021790555050503373ffffffffffffffffffffffffffffffffffffffff167f000000000000000000000000000000000000000000000000000000000000000073ffffffffffffffffffffffffffffffffffffffff167f094cbdeed4f7d87d6f1d045b9bfd508d61c719b223d4679750002aae2b9df52185856040516109eb929190611121565b60405180910390a3505050565b610a00610deb565b5f60015f3373ffffffffffffffffffffffffffffffffffffffff1673ffffffffffffffffffffffffffffffffffffffff1681526020019081526020015f20805490509050808210610a7d576040517f58d167d400000000000000000000000000000000000000000000000000000000815260040160405180910390fd5b5f60015f3373ffffffffffffffffffffffffffffffffffffffff1673ffffffffffffffffffffffffffffffffffffffff1681526020019081526020015f208381548110610acd57610acc6110f4565b5b905f5260205f209060070201905060016002811115610aef57610aee610f50565b5b816006015f9054906101000a900460ff166002811115610b1257610b11610f50565b5b14610b49576040517fba971e2a00000000000000000000000000000000000000000000000000000000815260040160405180910390fd5b8060060160019054906101000a900460ff1615610b92576040517f7c965d3700000000000000000000000000000000000000000000000000000000815260040160405180910390fd5b60018160060160016101000a81548160ff0219169083151502179055506002816006015f6101000a81548160ff02191690836002811115610bd657610bd5610f50565b5b02179055504281600301819055505f7f000000000000000000000000000000000000000000000000000000000000000073ffffffffffffffffffffffffffffffffffffffff168260050154604051610c2d90611175565b5f6040518083038185875af1925050503d805f8114610c67576040519150601f19603f3d011682016040523d82523d5f602084013e610c6c565b606091505b5050905080610ca7576040517f7689655000000000000000000000000000000000000000000000000000000000815260040160405180910390fd5b3373ffffffffffffffffffffffffffffffffffffffff167f000000000000000000000000000000000000000000000000000000000000000073ffffffffffffffffffffffffffffffffffffffff167f49c759449fa8e364af4e3e29a82e25dd9e57e6181b4fbdc966261457688071ec8460030154604051610d289190611084565b60405180910390a33373ffffffffffffffffffffffffffffffffffffffff167f000000000000000000000000000000000000000000000000000000000000000073ffffffffffffffffffffffffffffffffffffffff167f7fc2e8a0257c3163ca15531c1f24834aac42f1a3ad2af51311d74ad4dda2cda18460050154604051610db19190611084565b60405180910390a3505050610dc4610e2f565b50565b7f000000000000000000000000000000000000000000000000000000000000000081565b60025f5403610e26576040517f3ee5aeb500000000000000000000000000000000000000000000000000000000815260040160405180910390fd5b60025f81905550565b60015f81905550565b5f5ffd5b5f819050919050565b610e4e81610e3c565b8114610e58575f5ffd5b50565b5f81359050610e6981610e45565b92915050565b5f60208284031215610e8457610e83610e38565b5b5f610e9184828501610e5b565b91505092915050565b5f73ffffffffffffffffffffffffffffffffffffffff82169050919050565b5f610ec382610e9a565b9050919050565b610ed381610eb9565b8114610edd575f5ffd5b50565b5f81359050610eee81610eca565b92915050565b5f5f60408385031215610f0a57610f09610e38565b5b5f610f1785828601610ee0565b9250506020610f2885828601610e5b565b9150509250929050565b610f3b81610eb9565b82525050565b610f4a81610e3c565b82525050565b7f4e487b71000000000000000000000000000000000000000000000000000000005f52602160045260245ffd5b60038110610f8e57610f8d610f50565b5b50565b5f819050610f9e82610f7d565b919050565b5f610fad82610f91565b9050919050565b610fbd81610fa3565b82525050565b5f8115159050919050565b610fd781610fc3565b82525050565b5f61010082019050610ff15f83018b610f32565b610ffe602083018a610f32565b61100b6040830189610f41565b6110186060830188610f41565b6110256080830187610f41565b61103260a0830186610f41565b61103f60c0830185610fb4565b61104c60e0830184610fce565b9998505050505050505050565b5f6020828403121561106e5761106d610e38565b5b5f61107b84828501610ee0565b91505092915050565b5f6020820190506110975f830184610f41565b92915050565b5f5f604083850312156110b3576110b2610e38565b5b5f6110c085828601610e5b565b92505060206110d185828601610e5b565b9150509250929050565b5f6020820190506110ee5f830184610f32565b92915050565b7f4e487b71000000000000000000000000000000000000000000000000000000005f52603260045260245ffd5b5f6040820190506111345f830185610f41565b6111416020830184610f41565b9392505050565b5f81905092915050565b50565b5f6111605f83611148565b915061116b82611152565b5f82019050919050565b5f61117f82611155565b915081905091905056fea2646970667358221220b166711ba075fbdc4dddcdb37af9ebf68269282516e01c36bd5dd45f87d15bd264736f6c634300081c0033",
        "linkReferences": {}
    },
    "methodIdentifiers": {
        "completeShipment(uint256)": "f15456b5",
        "createShipment(uint256,uint256)": "c69e162f",
        "getShipment(address,uint256)": "8365da54",
        "getShipmentCount(address)": "b7dfd93d",
        "s_sender()": "f3a53fb0",
        "s_shipments(address,uint256)": "8b1b706a",
        "startShipment(uint256)": "09abeffa"
    },
    "id": 17
}