{
    "abi": [
        {
            "type": "constructor",
            "inputs": [],
            "stateMutability": "nonpayable"
        },
        {
            "type": "function",
            "name": "completeShipment",
            "inputs": [
                {
                    "name": "_sender",
                    "type": "address",
                    "internalType": "address"
                },
                {
                    "name": "_receiver",
                    "type": "address",
                    "internalType": "address"
                },
                {
                    "name": "_index",
                    "type": "uint256",
                    "internalType": "uint256"
                }
            ],
            "outputs": [],
            "stateMutability": "nonpayable"
        },
        {
            "type": "function",
            "name": "createShipment",
            "inputs": [
                {
                    "name": "_receiver",
                    "type": "address",
                    "internalType": "address"
                },
                {
                    "name": "_pickupTime",
                    "type": "uint256",
                    "internalType": "uint256"
                },
                {
                    "name": "_distance",
                    "type": "uint256",
                    "internalType": "uint256"
                },
                {
                    "name": "_price",
                    "type": "uint256",
                    "internalType": "uint256"
                }
            ],
            "outputs": [],
            "stateMutability": "payable"
        },
        {
            "type": "function",
            "name": "getAllTransactions",
            "inputs": [],
            "outputs": [
                {
                    "name": "",
                    "type": "tuple[]",
                    "internalType": "struct SupplyChain.TestShipment[]",
                    "components": [
                        {
                            "name": "sender",
                            "type": "address",
                            "internalType": "address"
                        },
                        {
                            "name": "receiver",
                            "type": "address",
                            "internalType": "address"
                        },
                        {
                            "name": "pickupTime",
                            "type": "uint256",
                            "internalType": "uint256"
                        },
                        {
                            "name": "deliveryTime",
                            "type": "uint256",
                            "internalType": "uint256"
                        },
                        {
                            "name": "distance",
                            "type": "uint256",
                            "internalType": "uint256"
                        },
                        {
                            "name": "price",
                            "type": "uint256",
                            "internalType": "uint256"
                        },
                        {
                            "name": "status",
                            "type": "uint8",
                            "internalType": "enum SupplyChain.ShipmentStatus"
                        },
                        {
                            "name": "isPaid",
                            "type": "bool",
                            "internalType": "bool"
                        }
                    ]
                }
            ],
            "stateMutability": "view"
        },
        {
            "type": "function",
            "name": "getShipment",
            "inputs": [
                {
                    "name": "_sender",
                    "type": "address",
                    "internalType": "address"
                },
                {
                    "name": "_index",
                    "type": "uint256",
                    "internalType": "uint256"
                }
            ],
            "outputs": [
                {
                    "name": "",
                    "type": "address",
                    "internalType": "address"
                },
                {
                    "name": "",
                    "type": "address",
                    "internalType": "address"
                },
                {
                    "name": "",
                    "type": "uint256",
                    "internalType": "uint256"
                },
                {
                    "name": "",
                    "type": "uint256",
                    "internalType": "uint256"
                },
                {
                    "name": "",
                    "type": "uint256",
                    "internalType": "uint256"
                },
                {
                    "name": "",
                    "type": "uint256",
                    "internalType": "uint256"
                },
                {
                    "name": "",
                    "type": "uint8",
                    "internalType": "enum SupplyChain.ShipmentStatus"
                },
                {
                    "name": "",
                    "type": "bool",
                    "internalType": "bool"
                }
            ],
            "stateMutability": "view"
        },
        {
            "type": "function",
            "name": "getShipmentCount",
            "inputs": [
                {
                    "name": "_sender",
                    "type": "address",
                    "internalType": "address"
                }
            ],
            "outputs": [
                {
                    "name": "",
                    "type": "uint256",
                    "internalType": "uint256"
                }
            ],
            "stateMutability": "view"
        },
        {
            "type": "function",
            "name": "shipmentCount",
            "inputs": [],
            "outputs": [
                {
                    "name": "",
                    "type": "uint256",
                    "internalType": "uint256"
                }
            ],
            "stateMutability": "view"
        },
        {
            "type": "function",
            "name": "shipments",
            "inputs": [
                {
                    "name": "",
                    "type": "address",
                    "internalType": "address"
                },
                {
                    "name": "",
                    "type": "uint256",
                    "internalType": "uint256"
                }
            ],
            "outputs": [
                {
                    "name": "sender",
                    "type": "address",
                    "internalType": "address"
                },
                {
                    "name": "receiver",
                    "type": "address",
                    "internalType": "address"
                },
                {
                    "name": "pickupTime",
                    "type": "uint256",
                    "internalType": "uint256"
                },
                {
                    "name": "deliveryTime",
                    "type": "uint256",
                    "internalType": "uint256"
                },
                {
                    "name": "distance",
                    "type": "uint256",
                    "internalType": "uint256"
                },
                {
                    "name": "price",
                    "type": "uint256",
                    "internalType": "uint256"
                },
                {
                    "name": "status",
                    "type": "uint8",
                    "internalType": "enum SupplyChain.ShipmentStatus"
                },
                {
                    "name": "isPaid",
                    "type": "bool",
                    "internalType": "bool"
                }
            ],
            "stateMutability": "view"
        },
        {
            "type": "function",
            "name": "startShipment",
            "inputs": [
                {
                    "name": "_sender",
                    "type": "address",
                    "internalType": "address"
                },
                {
                    "name": "_receiver",
                    "type": "address",
                    "internalType": "address"
                },
                {
                    "name": "_index",
                    "type": "uint256",
                    "internalType": "uint256"
                }
            ],
            "outputs": [],
            "stateMutability": "nonpayable"
        },
        {
            "type": "event",
            "name": "ShipmentCreated",
            "inputs": [
                {
                    "name": "sender",
                    "type": "address",
                    "indexed": true,
                    "internalType": "address"
                },
                {
                    "name": "receiver",
                    "type": "address",
                    "indexed": true,
                    "internalType": "address"
                },
                {
                    "name": "pickupTime",
                    "type": "uint256",
                    "indexed": false,
                    "internalType": "uint256"
                },
                {
                    "name": "distance",
                    "type": "uint256",
                    "indexed": false,
                    "internalType": "uint256"
                },
                {
                    "name": "price",
                    "type": "uint256",
                    "indexed": false,
                    "internalType": "uint256"
                }
            ],
            "anonymous": false
        },
        {
            "type": "event",
            "name": "ShipmentDelivered",
            "inputs": [
                {
                    "name": "sender",
                    "type": "address",
                    "indexed": true,
                    "internalType": "address"
                },
                {
                    "name": "receiver",
                    "type": "address",
                    "indexed": true,
                    "internalType": "address"
                },
                {
                    "name": "deliveryTime",
                    "type": "uint256",
                    "indexed": false,
                    "internalType": "uint256"
                }
            ],
            "anonymous": false
        },
        {
            "type": "event",
            "name": "ShipmentInTransit",
            "inputs": [
                {
                    "name": "sender",
                    "type": "address",
                    "indexed": true,
                    "internalType": "address"
                },
                {
                    "name": "receiver",
                    "type": "address",
                    "indexed": true,
                    "internalType": "address"
                },
                {
                    "name": "pickupTime",
                    "type": "uint256",
                    "indexed": false,
                    "internalType": "uint256"
                }
            ],
            "anonymous": false
        },
        {
            "type": "event",
            "name": "ShipmentPaid",
            "inputs": [
                {
                    "name": "sender",
                    "type": "address",
                    "indexed": true,
                    "internalType": "address"
                },
                {
                    "name": "receiver",
                    "type": "address",
                    "indexed": true,
                    "internalType": "address"
                },
                {
                    "name": "amount",
                    "type": "uint256",
                    "indexed": false,
                    "internalType": "uint256"
                }
            ],
            "anonymous": false
        },
        {
            "type": "error",
            "name": "InvalidReceiver",
            "inputs": []
        },
        {
            "type": "error",
            "name": "PaymentDoesNotMatchPrice",
            "inputs": [
                {
                    "name": "amount",
                    "type": "uint256",
                    "internalType": "uint256"
                },
                {
                    "name": "price",
                    "type": "uint256",
                    "internalType": "uint256"
                },
                {
                    "name": "note",
                    "type": "string",
                    "internalType": "string"
                }
            ]
        },
        {
            "type": "error",
            "name": "ShipmentIsAlreadypaid",
            "inputs": []
        },
        {
            "type": "error",
            "name": "ShipmentNotInIntendedStatus",
            "inputs": [
                {
                    "name": "note",
                    "type": "string",
                    "internalType": "string"
                }
            ]
        }
    ],
    "bytecode": {
        "object": "0x6080604052348015600e575f5ffd5b505f6001819055506117fb806100235f395ff3fe60806040526004361061007a575f3560e01c80638365da541161004d5780638365da541461013b578063aace20b71461017e578063b7dfd93d146101a8578063cbc4b181146101e45761007a565b8063179a878c1461007e57806327506f53146100a65780635667e02f146100d05780637ff5265d14610113575b5f5ffd5b348015610089575f5ffd5b506100a4600480360381019061009f919061113d565b610200565b005b3480156100b1575f5ffd5b506100ba6105b0565b6040516100c79190611381565b60405180910390f35b3480156100db575f5ffd5b506100f660048036038101906100f191906113a1565b610733565b60405161010a98979695949392919061141b565b60405180910390f35b34801561011e575f5ffd5b506101396004803603810190610134919061113d565b6107e7565b005b348015610146575f5ffd5b50610161600480360381019061015c91906113a1565b610a2d565b60405161017598979695949392919061141b565b60405180910390f35b348015610189575f5ffd5b50610192610c09565b60405161019f9190611497565b60405180910390f35b3480156101b3575f5ffd5b506101ce60048036038101906101c991906114b0565b610c0f565b6040516101db9190611497565b60405180910390f35b6101fe60048036038101906101f991906114db565b610c57565b005b5f5f5f8573ffffffffffffffffffffffffffffffffffffffff1673ffffffffffffffffffffffffffffffffffffffff1681526020019081526020015f20828154811061024f5761024e61153f565b5b905f5260205f20906007020190505f600283815481106102725761027161153f565b5b905f5260205f20906007020190508373ffffffffffffffffffffffffffffffffffffffff16826001015f9054906101000a900473ffffffffffffffffffffffffffffffffffffffff1673ffffffffffffffffffffffffffffffffffffffff1614610308576040517f1e4ec46b00000000000000000000000000000000000000000000000000000000815260040160405180910390fd5b6001600281111561031c5761031b6111d4565b5b826006015f9054906101000a900460ff16600281111561033f5761033e6111d4565b5b1461037f576040517f5186bf69000000000000000000000000000000000000000000000000000000008152600401610376906115ec565b60405180910390fd5b8160060160019054906101000a900460ff16156103c8576040517ffd5fdf4600000000000000000000000000000000000000000000000000000000815260040160405180910390fd5b6002826006015f6101000a81548160ff021916908360028111156103ef576103ee6111d4565b5b02179055504282600301819055506002816006015f6101000a81548160ff02191690836002811115610424576104236111d4565b5b02179055504281600301819055505f82600501549050825f015f9054906101000a900473ffffffffffffffffffffffffffffffffffffffff1673ffffffffffffffffffffffffffffffffffffffff166108fc8290811502906040515f60405180830381858888f1935050505015801561049f573d5f5f3e3d5ffd5b5060018360060160016101000a81548160ff02191690831515021790555060018260060160016101000a81548160ff0219169083151502179055508473ffffffffffffffffffffffffffffffffffffffff168673ffffffffffffffffffffffffffffffffffffffff167f3746ccceb54f44c9b0ee0120e596168d07ec9f6ca303cfdd9810d3b2e2686a2e856003015460405161053b9190611497565b60405180910390a38473ffffffffffffffffffffffffffffffffffffffff168673ffffffffffffffffffffffffffffffffffffffff167f2b6f2473aebafaf8d0889669490135928ec4454d2e29a103fd39693bbca6aef1836040516105a09190611497565b60405180910390a3505050505050565b60606002805480602002602001604051908101604052809291908181526020015f905b8282101561072a578382905f5260205f209060070201604051806101000160405290815f82015f9054906101000a900473ffffffffffffffffffffffffffffffffffffffff1673ffffffffffffffffffffffffffffffffffffffff1673ffffffffffffffffffffffffffffffffffffffff168152602001600182015f9054906101000a900473ffffffffffffffffffffffffffffffffffffffff1673ffffffffffffffffffffffffffffffffffffffff1673ffffffffffffffffffffffffffffffffffffffff16815260200160028201548152602001600382015481526020016004820154815260200160058201548152602001600682015f9054906101000a900460ff1660028111156106ea576106e96111d4565b5b60028111156106fc576106fb6111d4565b5b81526020016006820160019054906101000a900460ff161515151581525050815260200190600101906105d3565b50505050905090565b5f602052815f5260405f20818154811061074b575f80fd5b905f5260205f2090600702015f9150915050805f015f9054906101000a900473ffffffffffffffffffffffffffffffffffffffff1690806001015f9054906101000a900473ffffffffffffffffffffffffffffffffffffffff1690806002015490806003015490806004015490806005015490806006015f9054906101000a900460ff16908060060160019054906101000a900460ff16905088565b5f5f5f8573ffffffffffffffffffffffffffffffffffffffff1673ffffffffffffffffffffffffffffffffffffffff1681526020019081526020015f2082815481106108365761083561153f565b5b905f5260205f20906007020190505f600283815481106108595761085861153f565b5b905f5260205f20906007020190508373ffffffffffffffffffffffffffffffffffffffff16826001015f9054906101000a900473ffffffffffffffffffffffffffffffffffffffff1673ffffffffffffffffffffffffffffffffffffffff16146108ef576040517f1e4ec46b00000000000000000000000000000000000000000000000000000000815260040160405180910390fd5b5f6002811115610902576109016111d4565b5b826006015f9054906101000a900460ff166002811115610925576109246111d4565b5b14610965576040517f5186bf6900000000000000000000000000000000000000000000000000000000815260040161095c90611654565b60405180910390fd5b6001826006015f6101000a81548160ff0219169083600281111561098c5761098b6111d4565b5b02179055506001816006015f6101000a81548160ff021916908360028111156109b8576109b76111d4565b5b02179055508373ffffffffffffffffffffffffffffffffffffffff168573ffffffffffffffffffffffffffffffffffffffff167faafab9f94340179ff9cefd29621e1772a4b8efab8023163838f1b0a8f6ce5df58460020154604051610a1e9190611497565b60405180910390a35050505050565b5f5f5f5f5f5f5f5f5f5f5f8c73ffffffffffffffffffffffffffffffffffffffff1673ffffffffffffffffffffffffffffffffffffffff1681526020019081526020015f208a81548110610a8457610a8361153f565b5b905f5260205f209060070201604051806101000160405290815f82015f9054906101000a900473ffffffffffffffffffffffffffffffffffffffff1673ffffffffffffffffffffffffffffffffffffffff1673ffffffffffffffffffffffffffffffffffffffff168152602001600182015f9054906101000a900473ffffffffffffffffffffffffffffffffffffffff1673ffffffffffffffffffffffffffffffffffffffff1673ffffffffffffffffffffffffffffffffffffffff16815260200160028201548152602001600382015481526020016004820154815260200160058201548152602001600682015f9054906101000a900460ff166002811115610b9157610b906111d4565b5b6002811115610ba357610ba26111d4565b5b81526020016006820160019054906101000a900460ff1615151515815250509050805f015181602001518260400151836060015184608001518560a001518660c001518760e0015198509850985098509850985098509850509295985092959890939650565b60015481565b5f5f5f8373ffffffffffffffffffffffffffffffffffffffff1673ffffffffffffffffffffffffffffffffffffffff1681526020019081526020015f20805490509050919050565b803414610c9d5734816040517f73352ff4000000000000000000000000000000000000000000000000000000008152600401610c949291906116e2565b60405180910390fd5b5f6040518061010001604052803373ffffffffffffffffffffffffffffffffffffffff1681526020018673ffffffffffffffffffffffffffffffffffffffff1681526020018581526020015f81526020018481526020018381526020015f6002811115610d0d57610d0c6111d4565b5b81526020015f151581525090505f5f3373ffffffffffffffffffffffffffffffffffffffff1673ffffffffffffffffffffffffffffffffffffffff1681526020019081526020015f2081908060018154018082558091505060019003905f5260205f2090600702015f909190919091505f820151815f015f6101000a81548173ffffffffffffffffffffffffffffffffffffffff021916908373ffffffffffffffffffffffffffffffffffffffff1602179055506020820151816001015f6101000a81548173ffffffffffffffffffffffffffffffffffffffff021916908373ffffffffffffffffffffffffffffffffffffffff16021790555060408201518160020155606082015181600301556080820151816004015560a0820151816005015560c0820151816006015f6101000a81548160ff02191690836002811115610e5957610e586111d4565b5b021790555060e08201518160060160016101000a81548160ff021916908315150217905550505060015f815480929190610e9290611749565b919050555060026040518061010001604052803373ffffffffffffffffffffffffffffffffffffffff1681526020018773ffffffffffffffffffffffffffffffffffffffff1681526020018681526020015f81526020018581526020018481526020015f6002811115610f0857610f076111d4565b5b81526020015f1515815250908060018154018082558091505060019003905f5260205f2090600702015f909190919091505f820151815f015f6101000a81548173ffffffffffffffffffffffffffffffffffffffff021916908373ffffffffffffffffffffffffffffffffffffffff1602179055506020820151816001015f6101000a81548173ffffffffffffffffffffffffffffffffffffffff021916908373ffffffffffffffffffffffffffffffffffffffff16021790555060408201518160020155606082015181600301556080820151816004015560a0820151816005015560c0820151816006015f6101000a81548160ff02191690836002811115611015576110146111d4565b5b021790555060e08201518160060160016101000a81548160ff02191690831515021790555050508473ffffffffffffffffffffffffffffffffffffffff163373ffffffffffffffffffffffffffffffffffffffff167f5001b34ecf2db5b7bbeddcbbe761ec9ecadcc7638018b98ce3e24995b0e946b686868660405161109d93929190611790565b60405180910390a35050505050565b5f5ffd5b5f73ffffffffffffffffffffffffffffffffffffffff82169050919050565b5f6110d9826110b0565b9050919050565b6110e9816110cf565b81146110f3575f5ffd5b50565b5f81359050611104816110e0565b92915050565b5f819050919050565b61111c8161110a565b8114611126575f5ffd5b50565b5f8135905061113781611113565b92915050565b5f5f5f60608486031215611154576111536110ac565b5b5f611161868287016110f6565b9350506020611172868287016110f6565b925050604061118386828701611129565b9150509250925092565b5f81519050919050565b5f82825260208201905092915050565b5f819050602082019050919050565b6111bf816110cf565b82525050565b6111ce8161110a565b82525050565b7f4e487b71000000000000000000000000000000000000000000000000000000005f52602160045260245ffd5b60038110611212576112116111d4565b5b50565b5f81905061122282611201565b919050565b5f61123182611215565b9050919050565b61124181611227565b82525050565b5f8115159050919050565b61125b81611247565b82525050565b61010082015f8201516112765f8501826111b6565b50602082015161128960208501826111b6565b50604082015161129c60408501826111c5565b5060608201516112af60608501826111c5565b5060808201516112c260808501826111c5565b5060a08201516112d560a08501826111c5565b5060c08201516112e860c0850182611238565b5060e08201516112fb60e0850182611252565b50505050565b5f61130c8383611261565b6101008301905092915050565b5f602082019050919050565b5f61132f8261118d565b6113398185611197565b9350611344836111a7565b805f5b8381101561137457815161135b8882611301565b975061136683611319565b925050600181019050611347565b5085935050505092915050565b5f6020820190508181035f8301526113998184611325565b905092915050565b5f5f604083850312156113b7576113b66110ac565b5b5f6113c4858286016110f6565b92505060206113d585828601611129565b9150509250929050565b6113e8816110cf565b82525050565b6113f78161110a565b82525050565b61140681611227565b82525050565b61141581611247565b82525050565b5f6101008201905061142f5f83018b6113df565b61143c602083018a6113df565b61144960408301896113ee565b61145660608301886113ee565b61146360808301876113ee565b61147060a08301866113ee565b61147d60c08301856113fd565b61148a60e083018461140c565b9998505050505050505050565b5f6020820190506114aa5f8301846113ee565b92915050565b5f602082840312156114c5576114c46110ac565b5b5f6114d2848285016110f6565b91505092915050565b5f5f5f5f608085870312156114f3576114f26110ac565b5b5f611500878288016110f6565b945050602061151187828801611129565b935050604061152287828801611129565b925050606061153387828801611129565b91505092959194509250565b7f4e487b71000000000000000000000000000000000000000000000000000000005f52603260045260245ffd5b5f82825260208201905092915050565b7f536869706d656e74206973206e6f7420696e20496e2d5472616e7369742073745f8201527f6174650000000000000000000000000000000000000000000000000000000000602082015250565b5f6115d660238361156c565b91506115e18261157c565b604082019050919050565b5f6020820190508181035f830152611603816115ca565b9050919050565b7f536869706d656e74206973206e6f7420696e2050656e64696e672073746174655f82015250565b5f61163e60208361156c565b91506116498261160a565b602082019050919050565b5f6020820190508181035f83015261166b81611632565b9050919050565b7f5061796d656e7420646f6573206e6f74206d61746368207468652070726963655f8201527f2075736572207365740000000000000000000000000000000000000000000000602082015250565b5f6116cc60298361156c565b91506116d782611672565b604082019050919050565b5f6060820190506116f55f8301856113ee565b61170260208301846113ee565b8181036040830152611713816116c0565b90509392505050565b7f4e487b71000000000000000000000000000000000000000000000000000000005f52601160045260245ffd5b5f6117538261110a565b91507fffffffffffffffffffffffffffffffffffffffffffffffffffffffffffffffff82036117855761178461171c565b5b600182019050919050565b5f6060820190506117a35f8301866113ee565b6117b060208301856113ee565b6117bd60408301846113ee565b94935050505056fea26469706673582212203b9d7c1d59a6c365785610dacd4bfb2d6f00510f948df606e121cae8219739ea64736f6c634300081c0033",
        "linkReferences": {}
    },
    "methodIdentifiers": {
        "completeShipment(address,address,uint256)": "179a878c",
        "createShipment(address,uint256,uint256,uint256)": "cbc4b181",
        "getAllTransactions()": "27506f53",
        "getShipment(address,uint256)": "8365da54",
        "getShipmentCount(address)": "b7dfd93d",
        "shipmentCount()": "aace20b7",
        "shipments(address,uint256)": "5667e02f",
        "startShipment(address,address,uint256)": "7ff5265d"
    },
    "id": 19
}