{
    "abi": [
        {
            "type": "function",
            "name": "completeShipment",
            "inputs": [
                {
                    "name": "_sender",
                    "type": "address",
                    "internalType": "address"
                },
                {
                    "name": "_receiver",
                    "type": "address",
                    "internalType": "address"
                },
                {
                    "name": "_index",
                    "type": "uint256",
                    "internalType": "uint256"
                }
            ],
            "outputs": [],
            "stateMutability": "nonpayable"
        },
        {
            "type": "function",
            "name": "createShipment",
            "inputs": [
                {
                    "name": "_receiver",
                    "type": "address",
                    "internalType": "address"
                },
                {
                    "name": "_pickupTime",
                    "type": "uint256",
                    "internalType": "uint256"
                },
                {
                    "name": "_distance",
                    "type": "uint256",
                    "internalType": "uint256"
                },
                {
                    "name": "_price",
                    "type": "uint256",
                    "internalType": "uint256"
                }
            ],
            "outputs": [],
            "stateMutability": "payable"
        },
        {
            "type": "function",
            "name": "getShipment",
            "inputs": [
                {
                    "name": "_sender",
                    "type": "address",
                    "internalType": "address"
                },
                {
                    "name": "_index",
                    "type": "uint256",
                    "internalType": "uint256"
                }
            ],
            "outputs": [
                {
                    "name": "",
                    "type": "address",
                    "internalType": "address"
                },
                {
                    "name": "",
                    "type": "address",
                    "internalType": "address"
                },
                {
                    "name": "",
                    "type": "uint256",
                    "internalType": "uint256"
                },
                {
                    "name": "",
                    "type": "uint256",
                    "internalType": "uint256"
                },
                {
                    "name": "",
                    "type": "uint256",
                    "internalType": "uint256"
                },
                {
                    "name": "",
                    "type": "uint256",
                    "internalType": "uint256"
                },
                {
                    "name": "",
                    "type": "uint8",
                    "internalType": "enum SupplyChain.ShipmentStatus"
                },
                {
                    "name": "",
                    "type": "bool",
                    "internalType": "bool"
                }
            ],
            "stateMutability": "view"
        },
        {
            "type": "function",
            "name": "getShipmentCount",
            "inputs": [
                {
                    "name": "_sender",
                    "type": "address",
                    "internalType": "address"
                }
            ],
            "outputs": [
                {
                    "name": "",
                    "type": "uint256",
                    "internalType": "uint256"
                }
            ],
            "stateMutability": "view"
        },
        {
            "type": "function",
            "name": "shipments",
            "inputs": [
                {
                    "name": "",
                    "type": "address",
                    "internalType": "address"
                },
                {
                    "name": "",
                    "type": "uint256",
                    "internalType": "uint256"
                }
            ],
            "outputs": [
                {
                    "name": "sender",
                    "type": "address",
                    "internalType": "address"
                },
                {
                    "name": "receiver",
                    "type": "address",
                    "internalType": "address"
                },
                {
                    "name": "pickupTime",
                    "type": "uint256",
                    "internalType": "uint256"
                },
                {
                    "name": "deliveryTime",
                    "type": "uint256",
                    "internalType": "uint256"
                },
                {
                    "name": "distance",
                    "type": "uint256",
                    "internalType": "uint256"
                },
                {
                    "name": "price",
                    "type": "uint256",
                    "internalType": "uint256"
                },
                {
                    "name": "status",
                    "type": "uint8",
                    "internalType": "enum SupplyChain.ShipmentStatus"
                },
                {
                    "name": "isPaid",
                    "type": "bool",
                    "internalType": "bool"
                }
            ],
            "stateMutability": "view"
        },
        {
            "type": "function",
            "name": "startShipment",
            "inputs": [
                {
                    "name": "_sender",
                    "type": "address",
                    "internalType": "address"
                },
                {
                    "name": "_receiver",
                    "type": "address",
                    "internalType": "address"
                },
                {
                    "name": "_index",
                    "type": "uint256",
                    "internalType": "uint256"
                }
            ],
            "outputs": [],
            "stateMutability": "nonpayable"
        },
        {
            "type": "event",
            "name": "ShipmentCreated",
            "inputs": [
                {
                    "name": "sender",
                    "type": "address",
                    "indexed": true,
                    "internalType": "address"
                },
                {
                    "name": "receiver",
                    "type": "address",
                    "indexed": true,
                    "internalType": "address"
                },
                {
                    "name": "pickupTime",
                    "type": "uint256",
                    "indexed": false,
                    "internalType": "uint256"
                },
                {
                    "name": "distance",
                    "type": "uint256",
                    "indexed": false,
                    "internalType": "uint256"
                },
                {
                    "name": "price",
                    "type": "uint256",
                    "indexed": false,
                    "internalType": "uint256"
                }
            ],
            "anonymous": false
        },
        {
            "type": "event",
            "name": "ShipmentDelivered",
            "inputs": [
                {
                    "name": "sender",
                    "type": "address",
                    "indexed": true,
                    "internalType": "address"
                },
                {
                    "name": "receiver",
                    "type": "address",
                    "indexed": true,
                    "internalType": "address"
                },
                {
                    "name": "deliveryTime",
                    "type": "uint256",
                    "indexed": false,
                    "internalType": "uint256"
                }
            ],
            "anonymous": false
        },
        {
            "type": "event",
            "name": "ShipmentInTransit",
            "inputs": [
                {
                    "name": "sender",
                    "type": "address",
                    "indexed": true,
                    "internalType": "address"
                },
                {
                    "name": "receiver",
                    "type": "address",
                    "indexed": true,
                    "internalType": "address"
                },
                {
                    "name": "pickupTime",
                    "type": "uint256",
                    "indexed": false,
                    "internalType": "uint256"
                }
            ],
            "anonymous": false
        },
        {
            "type": "event",
            "name": "ShipmentPaid",
            "inputs": [
                {
                    "name": "sender",
                    "type": "address",
                    "indexed": true,
                    "internalType": "address"
                },
                {
                    "name": "receiver",
                    "type": "address",
                    "indexed": true,
                    "internalType": "address"
                },
                {
                    "name": "amount",
                    "type": "uint256",
                    "indexed": false,
                    "internalType": "uint256"
                }
            ],
            "anonymous": false
        },
        {
            "type": "error",
            "name": "InvalidReceiver",
            "inputs": []
        },
        {
            "type": "error",
            "name": "PaymentDoesNotMatchPrice",
            "inputs": [
                {
                    "name": "amount",
                    "type": "uint256",
                    "internalType": "uint256"
                },
                {
                    "name": "price",
                    "type": "uint256",
                    "internalType": "uint256"
                },
                {
                    "name": "note",
                    "type": "string",
                    "internalType": "string"
                }
            ]
        },
        {
            "type": "error",
            "name": "ReentrancyGuardReentrantCall",
            "inputs": []
        },
        {
            "type": "error",
            "name": "ShipmentIsAlreadypaid",
            "inputs": []
        },
        {
            "type": "error",
            "name": "ShipmentNotInIntendedStatus",
            "inputs": [
                {
                    "name": "note",
                    "type": "string",
                    "internalType": "string"
                }
            ]
        }
    ],
    "bytecode": {
        "object": "0x6080604052348015600e575f5ffd5b5060015f819055506111c0806100235f395ff3fe608060405260043610610054575f3560e01c8063179a878c146100585780635667e02f146100805780637ff5265d146100c35780638365da54146100eb578063b7dfd93d1461012e578063cbc4b1811461016a575b5f5ffd5b348015610063575f5ffd5b5061007e60048036038101906100799190610d1b565b610186565b005b34801561008b575f5ffd5b506100a660048036038101906100a19190610d6b565b6104d1565b6040516100ba989796959493929190610e54565b60405180910390f35b3480156100ce575f5ffd5b506100e960048036038101906100e49190610d1b565b610586565b005b3480156100f6575f5ffd5b50610111600480360381019061010c9190610d6b565b61077d565b604051610125989796959493929190610e54565b60405180910390f35b348015610139575f5ffd5b50610154600480360381019061014f9190610ed0565b61095a565b6040516101619190610efb565b60405180910390f35b610184600480360381019061017f9190610f14565b6109a3565b005b61018e610c3d565b5f60015f8573ffffffffffffffffffffffffffffffffffffffff1673ffffffffffffffffffffffffffffffffffffffff1681526020019081526020015f2082815481106101de576101dd610f78565b5b905f5260205f20906007020190508273ffffffffffffffffffffffffffffffffffffffff16816001015f9054906101000a900473ffffffffffffffffffffffffffffffffffffffff1673ffffffffffffffffffffffffffffffffffffffff1614610274576040517f1e4ec46b00000000000000000000000000000000000000000000000000000000815260040160405180910390fd5b6001600281111561028857610287610dc7565b5b816006015f9054906101000a900460ff1660028111156102ab576102aa610dc7565b5b146102eb576040517f5186bf690000000000000000000000000000000000000000000000000000000081526004016102e290611025565b60405180910390fd5b8060060160019054906101000a900460ff1615610334576040517ffd5fdf4600000000000000000000000000000000000000000000000000000000815260040160405180910390fd5b60018160060160016101000a81548160ff0219169083151502179055506002816006015f6101000a81548160ff0219169083600281111561037857610377610dc7565b5b02179055504281600301819055505f81600501549050815f015f9054906101000a900473ffffffffffffffffffffffffffffffffffffffff1673ffffffffffffffffffffffffffffffffffffffff166108fc8290811502906040515f60405180830381858888f193505050501580156103f3573d5f5f3e3d5ffd5b508373ffffffffffffffffffffffffffffffffffffffff168573ffffffffffffffffffffffffffffffffffffffff167f3746ccceb54f44c9b0ee0120e596168d07ec9f6ca303cfdd9810d3b2e2686a2e84600301546040516104559190610efb565b60405180910390a38373ffffffffffffffffffffffffffffffffffffffff168573ffffffffffffffffffffffffffffffffffffffff167f2b6f2473aebafaf8d0889669490135928ec4454d2e29a103fd39693bbca6aef1836040516104ba9190610efb565b60405180910390a350506104cc610c81565b505050565b6001602052815f5260405f2081815481106104ea575f80fd5b905f5260205f2090600702015f9150915050805f015f9054906101000a900473ffffffffffffffffffffffffffffffffffffffff1690806001015f9054906101000a900473ffffffffffffffffffffffffffffffffffffffff1690806002015490806003015490806004015490806005015490806006015f9054906101000a900460ff16908060060160019054906101000a900460ff16905088565b5f60015f8573ffffffffffffffffffffffffffffffffffffffff1673ffffffffffffffffffffffffffffffffffffffff1681526020019081526020015f2082815481106105d6576105d5610f78565b5b905f5260205f20906007020190508273ffffffffffffffffffffffffffffffffffffffff16816001015f9054906101000a900473ffffffffffffffffffffffffffffffffffffffff1673ffffffffffffffffffffffffffffffffffffffff161461066c576040517f1e4ec46b00000000000000000000000000000000000000000000000000000000815260040160405180910390fd5b5f600281111561067f5761067e610dc7565b5b816006015f9054906101000a900460ff1660028111156106a2576106a1610dc7565b5b146106e2576040517f5186bf690000000000000000000000000000000000000000000000000000000081526004016106d99061108d565b60405180910390fd5b6001816006015f6101000a81548160ff0219169083600281111561070957610708610dc7565b5b02179055508273ffffffffffffffffffffffffffffffffffffffff168473ffffffffffffffffffffffffffffffffffffffff167faafab9f94340179ff9cefd29621e1772a4b8efab8023163838f1b0a8f6ce5df5836002015460405161076f9190610efb565b60405180910390a350505050565b5f5f5f5f5f5f5f5f5f60015f8c73ffffffffffffffffffffffffffffffffffffffff1673ffffffffffffffffffffffffffffffffffffffff1681526020019081526020015f208a815481106107d5576107d4610f78565b5b905f5260205f209060070201604051806101000160405290815f82015f9054906101000a900473ffffffffffffffffffffffffffffffffffffffff1673ffffffffffffffffffffffffffffffffffffffff1673ffffffffffffffffffffffffffffffffffffffff168152602001600182015f9054906101000a900473ffffffffffffffffffffffffffffffffffffffff1673ffffffffffffffffffffffffffffffffffffffff1673ffffffffffffffffffffffffffffffffffffffff16815260200160028201548152602001600382015481526020016004820154815260200160058201548152602001600682015f9054906101000a900460ff1660028111156108e2576108e1610dc7565b5b60028111156108f4576108f3610dc7565b5b81526020016006820160019054906101000a900460ff1615151515815250509050805f015181602001518260400151836060015184608001518560a001518660c001518760e0015198509850985098509850985098509850509295985092959890939650565b5f60015f8373ffffffffffffffffffffffffffffffffffffffff1673ffffffffffffffffffffffffffffffffffffffff1681526020019081526020015f20805490509050919050565b8034146109e95734816040517f73352ff40000000000000000000000000000000000000000000000000000000081526004016109e092919061111b565b60405180910390fd5b5f6040518061010001604052803373ffffffffffffffffffffffffffffffffffffffff1681526020018673ffffffffffffffffffffffffffffffffffffffff1681526020018581526020015f81526020018481526020018381526020015f6002811115610a5957610a58610dc7565b5b81526020015f1515815250905060015f3373ffffffffffffffffffffffffffffffffffffffff1673ffffffffffffffffffffffffffffffffffffffff1681526020019081526020015f2081908060018154018082558091505060019003905f5260205f2090600702015f909190919091505f820151815f015f6101000a81548173ffffffffffffffffffffffffffffffffffffffff021916908373ffffffffffffffffffffffffffffffffffffffff1602179055506020820151816001015f6101000a81548173ffffffffffffffffffffffffffffffffffffffff021916908373ffffffffffffffffffffffffffffffffffffffff16021790555060408201518160020155606082015181600301556080820151816004015560a0820151816005015560c0820151816006015f6101000a81548160ff02191690836002811115610ba657610ba5610dc7565b5b021790555060e08201518160060160016101000a81548160ff02191690831515021790555050508473ffffffffffffffffffffffffffffffffffffffff163373ffffffffffffffffffffffffffffffffffffffff167f5001b34ecf2db5b7bbeddcbbe761ec9ecadcc7638018b98ce3e24995b0e946b6868686604051610c2e93929190611155565b60405180910390a35050505050565b60025f5403610c78576040517f3ee5aeb500000000000000000000000000000000000000000000000000000000815260040160405180910390fd5b60025f81905550565b60015f81905550565b5f5ffd5b5f73ffffffffffffffffffffffffffffffffffffffff82169050919050565b5f610cb782610c8e565b9050919050565b610cc781610cad565b8114610cd1575f5ffd5b50565b5f81359050610ce281610cbe565b92915050565b5f819050919050565b610cfa81610ce8565b8114610d04575f5ffd5b50565b5f81359050610d1581610cf1565b92915050565b5f5f5f60608486031215610d3257610d31610c8a565b5b5f610d3f86828701610cd4565b9350506020610d5086828701610cd4565b9250506040610d6186828701610d07565b9150509250925092565b5f5f60408385031215610d8157610d80610c8a565b5b5f610d8e85828601610cd4565b9250506020610d9f85828601610d07565b9150509250929050565b610db281610cad565b82525050565b610dc181610ce8565b82525050565b7f4e487b71000000000000000000000000000000000000000000000000000000005f52602160045260245ffd5b60038110610e0557610e04610dc7565b5b50565b5f819050610e1582610df4565b919050565b5f610e2482610e08565b9050919050565b610e3481610e1a565b82525050565b5f8115159050919050565b610e4e81610e3a565b82525050565b5f61010082019050610e685f83018b610da9565b610e75602083018a610da9565b610e826040830189610db8565b610e8f6060830188610db8565b610e9c6080830187610db8565b610ea960a0830186610db8565b610eb660c0830185610e2b565b610ec360e0830184610e45565b9998505050505050505050565b5f60208284031215610ee557610ee4610c8a565b5b5f610ef284828501610cd4565b91505092915050565b5f602082019050610f0e5f830184610db8565b92915050565b5f5f5f5f60808587031215610f2c57610f2b610c8a565b5b5f610f3987828801610cd4565b9450506020610f4a87828801610d07565b9350506040610f5b87828801610d07565b9250506060610f6c87828801610d07565b91505092959194509250565b7f4e487b71000000000000000000000000000000000000000000000000000000005f52603260045260245ffd5b5f82825260208201905092915050565b7f536869706d656e74206973206e6f7420696e20496e2d5472616e7369742073745f8201527f6174650000000000000000000000000000000000000000000000000000000000602082015250565b5f61100f602383610fa5565b915061101a82610fb5565b604082019050919050565b5f6020820190508181035f83015261103c81611003565b9050919050565b7f536869706d656e74206973206e6f7420696e2050656e64696e672073746174655f82015250565b5f611077602083610fa5565b915061108282611043565b602082019050919050565b5f6020820190508181035f8301526110a48161106b565b9050919050565b7f5061796d656e7420646f6573206e6f74206d61746368207468652070726963655f8201527f2075736572207365740000000000000000000000000000000000000000000000602082015250565b5f611105602983610fa5565b9150611110826110ab565b604082019050919050565b5f60608201905061112e5f830185610db8565b61113b6020830184610db8565b818103604083015261114c816110f9565b90509392505050565b5f6060820190506111685f830186610db8565b6111756020830185610db8565b6111826040830184610db8565b94935050505056fea2646970667358221220dfaa9d0500b7c78c2512d60b1bef7064035b9501491f988e381420203ad0282864736f6c634300081c0033",
        "linkReferences": {}
    },
    "methodIdentifiers": {
        "completeShipment(address,address,uint256)": "179a878c",
        "createShipment(address,uint256,uint256,uint256)": "cbc4b181",
        "getShipment(address,uint256)": "8365da54",
        "getShipmentCount(address)": "b7dfd93d",
        "shipments(address,uint256)": "5667e02f",
        "startShipment(address,address,uint256)": "7ff5265d"
    },
    "id": 22
}