{
    "abi": [
        {
            "type": "constructor",
            "inputs": [],
            "stateMutability": "nonpayable"
        },
        {
            "type": "function",
            "name": "completeShipment",
            "inputs": [
                {
                    "name": "_sender",
                    "type": "address",
                    "internalType": "address"
                },
                {
                    "name": "_receiver",
                    "type": "address",
                    "internalType": "address"
                },
                {
                    "name": "_index",
                    "type": "uint256",
                    "internalType": "uint256"
                }
            ],
            "outputs": [],
            "stateMutability": "nonpayable"
        },
        {
            "type": "function",
            "name": "createShipment",
            "inputs": [
                {
                    "name": "_receiver",
                    "type": "address",
                    "internalType": "address"
                },
                {
                    "name": "_pickupTime",
                    "type": "uint256",
                    "internalType": "uint256"
                },
                {
                    "name": "_distance",
                    "type": "uint256",
                    "internalType": "uint256"
                },
                {
                    "name": "_price",
                    "type": "uint256",
                    "internalType": "uint256"
                }
            ],
            "outputs": [],
            "stateMutability": "payable"
        },
        {
            "type": "function",
            "name": "getAllTransactions",
            "inputs": [],
            "outputs": [
                {
                    "name": "",
                    "type": "tuple[]",
                    "internalType": "struct SupplyChain.TestShipment[]",
                    "components": [
                        {
                            "name": "sender",
                            "type": "address",
                            "internalType": "address"
                        },
                        {
                            "name": "receiver",
                            "type": "address",
                            "internalType": "address"
                        },
                        {
                            "name": "pickupTime",
                            "type": "uint256",
                            "internalType": "uint256"
                        },
                        {
                            "name": "deliveryTime",
                            "type": "uint256",
                            "internalType": "uint256"
                        },
                        {
                            "name": "distance",
                            "type": "uint256",
                            "internalType": "uint256"
                        },
                        {
                            "name": "price",
                            "type": "uint256",
                            "internalType": "uint256"
                        },
                        {
                            "name": "status",
                            "type": "uint8",
                            "internalType": "enum SupplyChain.ShipmentStatus"
                        },
                        {
                            "name": "isPaid",
                            "type": "bool",
                            "internalType": "bool"
                        }
                    ]
                }
            ],
            "stateMutability": "view"
        },
        {
            "type": "function",
            "name": "getShipment",
            "inputs": [
                {
                    "name": "_sender",
                    "type": "address",
                    "internalType": "address"
                },
                {
                    "name": "_index",
                    "type": "uint256",
                    "internalType": "uint256"
                }
            ],
            "outputs": [
                {
                    "name": "",
                    "type": "address",
                    "internalType": "address"
                },
                {
                    "name": "",
                    "type": "address",
                    "internalType": "address"
                },
                {
                    "name": "",
                    "type": "uint256",
                    "internalType": "uint256"
                },
                {
                    "name": "",
                    "type": "uint256",
                    "internalType": "uint256"
                },
                {
                    "name": "",
                    "type": "uint256",
                    "internalType": "uint256"
                },
                {
                    "name": "",
                    "type": "uint256",
                    "internalType": "uint256"
                },
                {
                    "name": "",
                    "type": "uint8",
                    "internalType": "enum SupplyChain.ShipmentStatus"
                },
                {
                    "name": "",
                    "type": "bool",
                    "internalType": "bool"
                }
            ],
            "stateMutability": "view"
        },
        {
            "type": "function",
            "name": "shipmentCount",
            "inputs": [],
            "outputs": [
                {
                    "name": "",
                    "type": "uint256",
                    "internalType": "uint256"
                }
            ],
            "stateMutability": "view"
        },
        {
            "type": "function",
            "name": "shipments",
            "inputs": [
                {
                    "name": "",
                    "type": "address",
                    "internalType": "address"
                },
                {
                    "name": "",
                    "type": "uint256",
                    "internalType": "uint256"
                }
            ],
            "outputs": [
                {
                    "name": "sender",
                    "type": "address",
                    "internalType": "address"
                },
                {
                    "name": "receiver",
                    "type": "address",
                    "internalType": "address"
                },
                {
                    "name": "pickupTime",
                    "type": "uint256",
                    "internalType": "uint256"
                },
                {
                    "name": "deliveryTime",
                    "type": "uint256",
                    "internalType": "uint256"
                },
                {
                    "name": "distance",
                    "type": "uint256",
                    "internalType": "uint256"
                },
                {
                    "name": "price",
                    "type": "uint256",
                    "internalType": "uint256"
                },
                {
                    "name": "status",
                    "type": "uint8",
                    "internalType": "enum SupplyChain.ShipmentStatus"
                },
                {
                    "name": "isPaid",
                    "type": "bool",
                    "internalType": "bool"
                }
            ],
            "stateMutability": "view"
        },
        {
            "type": "function",
            "name": "startShipment",
            "inputs": [
                {
                    "name": "_sender",
                    "type": "address",
                    "internalType": "address"
                },
                {
                    "name": "_receiver",
                    "type": "address",
                    "internalType": "address"
                },
                {
                    "name": "_index",
                    "type": "uint256",
                    "internalType": "uint256"
                }
            ],
            "outputs": [],
            "stateMutability": "nonpayable"
        },
        {
            "type": "event",
            "name": "ShipmentCreated",
            "inputs": [
                {
                    "name": "sender",
                    "type": "address",
                    "indexed": true,
                    "internalType": "address"
                },
                {
                    "name": "receiver",
                    "type": "address",
                    "indexed": true,
                    "internalType": "address"
                },
                {
                    "name": "pickupTime",
                    "type": "uint256",
                    "indexed": false,
                    "internalType": "uint256"
                },
                {
                    "name": "distance",
                    "type": "uint256",
                    "indexed": false,
                    "internalType": "uint256"
                },
                {
                    "name": "price",
                    "type": "uint256",
                    "indexed": false,
                    "internalType": "uint256"
                }
            ],
            "anonymous": false
        },
        {
            "type": "event",
            "name": "ShipmentDelivered",
            "inputs": [
                {
                    "name": "sender",
                    "type": "address",
                    "indexed": true,
                    "internalType": "address"
                },
                {
                    "name": "receiver",
                    "type": "address",
                    "indexed": true,
                    "internalType": "address"
                },
                {
                    "name": "deliveryTime",
                    "type": "uint256",
                    "indexed": false,
                    "internalType": "uint256"
                }
            ],
            "anonymous": false
        },
        {
            "type": "event",
            "name": "ShipmentInTransit",
            "inputs": [
                {
                    "name": "sender",
                    "type": "address",
                    "indexed": true,
                    "internalType": "address"
                },
                {
                    "name": "receiver",
                    "type": "address",
                    "indexed": true,
                    "internalType": "address"
                },
                {
                    "name": "pickupTime",
                    "type": "uint256",
                    "indexed": false,
                    "internalType": "uint256"
                }
            ],
            "anonymous": false
        },
        {
            "type": "event",
            "name": "ShipmentPaid",
            "inputs": [
                {
                    "name": "sender",
                    "type": "address",
                    "indexed": true,
                    "internalType": "address"
                },
                {
                    "name": "receiver",
                    "type": "address",
                    "indexed": true,
                    "internalType": "address"
                },
                {
                    "name": "amount",
                    "type": "uint256",
                    "indexed": false,
                    "internalType": "uint256"
                }
            ],
            "anonymous": false
        },
        {
            "type": "error",
            "name": "InvalidReceiver",
            "inputs": []
        },
        {
            "type": "error",
            "name": "PaymentDoesNotMatchPrice",
            "inputs": [
                {
                    "name": "amount",
                    "type": "uint256",
                    "internalType": "uint256"
                },
                {
                    "name": "price",
                    "type": "uint256",
                    "internalType": "uint256"
                },
                {
                    "name": "note",
                    "type": "string",
                    "internalType": "string"
                }
            ]
        },
        {
            "type": "error",
            "name": "ShipmentIsAlreadypaid",
            "inputs": []
        },
        {
            "type": "error",
            "name": "ShipmentNotInIntendedStatus",
            "inputs": [
                {
                    "name": "note",
                    "type": "string",
                    "internalType": "string"
                }
            ]
        }
    ],
    "bytecode": {
        "object": "0x6080604052348015600e575f5ffd5b505f600181905550611741806100235f395ff3fe60806040526004361061006f575f3560e01c80637ff5265d1161004d5780637ff5265d146101085780638365da5414610130578063aace20b714610173578063cbc4b1811461019d5761006f565b8063179a878c1461007357806327506f531461009b5780635667e02f146100c5575b5f5ffd5b34801561007e575f5ffd5b50610099600480360381019061009491906110ae565b6101b9565b005b3480156100a6575f5ffd5b506100af610569565b6040516100bc91906112f2565b60405180910390f35b3480156100d0575f5ffd5b506100eb60048036038101906100e69190611312565b6106ec565b6040516100ff98979695949392919061138c565b60405180910390f35b348015610113575f5ffd5b5061012e600480360381019061012991906110ae565b6107a0565b005b34801561013b575f5ffd5b5061015660048036038101906101519190611312565b6109e6565b60405161016a98979695949392919061138c565b60405180910390f35b34801561017e575f5ffd5b50610187610bc2565b6040516101949190611408565b60405180910390f35b6101b760048036038101906101b29190611421565b610bc8565b005b5f5f5f8573ffffffffffffffffffffffffffffffffffffffff1673ffffffffffffffffffffffffffffffffffffffff1681526020019081526020015f20828154811061020857610207611485565b5b905f5260205f20906007020190505f6002838154811061022b5761022a611485565b5b905f5260205f20906007020190508373ffffffffffffffffffffffffffffffffffffffff16826001015f9054906101000a900473ffffffffffffffffffffffffffffffffffffffff1673ffffffffffffffffffffffffffffffffffffffff16146102c1576040517f1e4ec46b00000000000000000000000000000000000000000000000000000000815260040160405180910390fd5b600160028111156102d5576102d4611145565b5b826006015f9054906101000a900460ff1660028111156102f8576102f7611145565b5b14610338576040517f5186bf6900000000000000000000000000000000000000000000000000000000815260040161032f90611532565b60405180910390fd5b8160060160019054906101000a900460ff1615610381576040517ffd5fdf4600000000000000000000000000000000000000000000000000000000815260040160405180910390fd5b6002826006015f6101000a81548160ff021916908360028111156103a8576103a7611145565b5b02179055504282600301819055506002816006015f6101000a81548160ff021916908360028111156103dd576103dc611145565b5b02179055504281600301819055505f82600501549050825f015f9054906101000a900473ffffffffffffffffffffffffffffffffffffffff1673ffffffffffffffffffffffffffffffffffffffff166108fc8290811502906040515f60405180830381858888f19350505050158015610458573d5f5f3e3d5ffd5b5060018360060160016101000a81548160ff02191690831515021790555060018260060160016101000a81548160ff0219169083151502179055508473ffffffffffffffffffffffffffffffffffffffff168673ffffffffffffffffffffffffffffffffffffffff167f3746ccceb54f44c9b0ee0120e596168d07ec9f6ca303cfdd9810d3b2e2686a2e85600301546040516104f49190611408565b60405180910390a38473ffffffffffffffffffffffffffffffffffffffff168673ffffffffffffffffffffffffffffffffffffffff167f2b6f2473aebafaf8d0889669490135928ec4454d2e29a103fd39693bbca6aef1836040516105599190611408565b60405180910390a3505050505050565b60606002805480602002602001604051908101604052809291908181526020015f905b828210156106e3578382905f5260205f209060070201604051806101000160405290815f82015f9054906101000a900473ffffffffffffffffffffffffffffffffffffffff1673ffffffffffffffffffffffffffffffffffffffff1673ffffffffffffffffffffffffffffffffffffffff168152602001600182015f9054906101000a900473ffffffffffffffffffffffffffffffffffffffff1673ffffffffffffffffffffffffffffffffffffffff1673ffffffffffffffffffffffffffffffffffffffff16815260200160028201548152602001600382015481526020016004820154815260200160058201548152602001600682015f9054906101000a900460ff1660028111156106a3576106a2611145565b5b60028111156106b5576106b4611145565b5b81526020016006820160019054906101000a900460ff1615151515815250508152602001906001019061058c565b50505050905090565b5f602052815f5260405f208181548110610704575f80fd5b905f5260205f2090600702015f9150915050805f015f9054906101000a900473ffffffffffffffffffffffffffffffffffffffff1690806001015f9054906101000a900473ffffffffffffffffffffffffffffffffffffffff1690806002015490806003015490806004015490806005015490806006015f9054906101000a900460ff16908060060160019054906101000a900460ff16905088565b5f5f5f8573ffffffffffffffffffffffffffffffffffffffff1673ffffffffffffffffffffffffffffffffffffffff1681526020019081526020015f2082815481106107ef576107ee611485565b5b905f5260205f20906007020190505f6002838154811061081257610811611485565b5b905f5260205f20906007020190508373ffffffffffffffffffffffffffffffffffffffff16826001015f9054906101000a900473ffffffffffffffffffffffffffffffffffffffff1673ffffffffffffffffffffffffffffffffffffffff16146108a8576040517f1e4ec46b00000000000000000000000000000000000000000000000000000000815260040160405180910390fd5b5f60028111156108bb576108ba611145565b5b826006015f9054906101000a900460ff1660028111156108de576108dd611145565b5b1461091e576040517f5186bf690000000000000000000000000000000000000000000000000000000081526004016109159061159a565b60405180910390fd5b6001826006015f6101000a81548160ff0219169083600281111561094557610944611145565b5b02179055506001816006015f6101000a81548160ff0219169083600281111561097157610970611145565b5b02179055508373ffffffffffffffffffffffffffffffffffffffff168573ffffffffffffffffffffffffffffffffffffffff167faafab9f94340179ff9cefd29621e1772a4b8efab8023163838f1b0a8f6ce5df584600201546040516109d79190611408565b60405180910390a35050505050565b5f5f5f5f5f5f5f5f5f5f5f8c73ffffffffffffffffffffffffffffffffffffffff1673ffffffffffffffffffffffffffffffffffffffff1681526020019081526020015f208a81548110610a3d57610a3c611485565b5b905f5260205f209060070201604051806101000160405290815f82015f9054906101000a900473ffffffffffffffffffffffffffffffffffffffff1673ffffffffffffffffffffffffffffffffffffffff1673ffffffffffffffffffffffffffffffffffffffff168152602001600182015f9054906101000a900473ffffffffffffffffffffffffffffffffffffffff1673ffffffffffffffffffffffffffffffffffffffff1673ffffffffffffffffffffffffffffffffffffffff16815260200160028201548152602001600382015481526020016004820154815260200160058201548152602001600682015f9054906101000a900460ff166002811115610b4a57610b49611145565b5b6002811115610b5c57610b5b611145565b5b81526020016006820160019054906101000a900460ff1615151515815250509050805f015181602001518260400151836060015184608001518560a001518660c001518760e0015198509850985098509850985098509850509295985092959890939650565b60015481565b803414610c0e5734816040517f73352ff4000000000000000000000000000000000000000000000000000000008152600401610c05929190611628565b60405180910390fd5b5f6040518061010001604052803373ffffffffffffffffffffffffffffffffffffffff1681526020018673ffffffffffffffffffffffffffffffffffffffff1681526020018581526020015f81526020018481526020018381526020015f6002811115610c7e57610c7d611145565b5b81526020015f151581525090505f5f3373ffffffffffffffffffffffffffffffffffffffff1673ffffffffffffffffffffffffffffffffffffffff1681526020019081526020015f2081908060018154018082558091505060019003905f5260205f2090600702015f909190919091505f820151815f015f6101000a81548173ffffffffffffffffffffffffffffffffffffffff021916908373ffffffffffffffffffffffffffffffffffffffff1602179055506020820151816001015f6101000a81548173ffffffffffffffffffffffffffffffffffffffff021916908373ffffffffffffffffffffffffffffffffffffffff16021790555060408201518160020155606082015181600301556080820151816004015560a0820151816005015560c0820151816006015f6101000a81548160ff02191690836002811115610dca57610dc9611145565b5b021790555060e08201518160060160016101000a81548160ff021916908315150217905550505060015f815480929190610e039061168f565b919050555060026040518061010001604052803373ffffffffffffffffffffffffffffffffffffffff1681526020018773ffffffffffffffffffffffffffffffffffffffff1681526020018681526020015f81526020018581526020018481526020015f6002811115610e7957610e78611145565b5b81526020015f1515815250908060018154018082558091505060019003905f5260205f2090600702015f909190919091505f820151815f015f6101000a81548173ffffffffffffffffffffffffffffffffffffffff021916908373ffffffffffffffffffffffffffffffffffffffff1602179055506020820151816001015f6101000a81548173ffffffffffffffffffffffffffffffffffffffff021916908373ffffffffffffffffffffffffffffffffffffffff16021790555060408201518160020155606082015181600301556080820151816004015560a0820151816005015560c0820151816006015f6101000a81548160ff02191690836002811115610f8657610f85611145565b5b021790555060e08201518160060160016101000a81548160ff02191690831515021790555050508473ffffffffffffffffffffffffffffffffffffffff163373ffffffffffffffffffffffffffffffffffffffff167f5001b34ecf2db5b7bbeddcbbe761ec9ecadcc7638018b98ce3e24995b0e946b686868660405161100e939291906116d6565b60405180910390a35050505050565b5f5ffd5b5f73ffffffffffffffffffffffffffffffffffffffff82169050919050565b5f61104a82611021565b9050919050565b61105a81611040565b8114611064575f5ffd5b50565b5f8135905061107581611051565b92915050565b5f819050919050565b61108d8161107b565b8114611097575f5ffd5b50565b5f813590506110a881611084565b92915050565b5f5f5f606084860312156110c5576110c461101d565b5b5f6110d286828701611067565b93505060206110e386828701611067565b92505060406110f48682870161109a565b9150509250925092565b5f81519050919050565b5f82825260208201905092915050565b5f819050602082019050919050565b61113081611040565b82525050565b61113f8161107b565b82525050565b7f4e487b71000000000000000000000000000000000000000000000000000000005f52602160045260245ffd5b6003811061118357611182611145565b5b50565b5f81905061119382611172565b919050565b5f6111a282611186565b9050919050565b6111b281611198565b82525050565b5f8115159050919050565b6111cc816111b8565b82525050565b61010082015f8201516111e75f850182611127565b5060208201516111fa6020850182611127565b50604082015161120d6040850182611136565b5060608201516112206060850182611136565b5060808201516112336080850182611136565b5060a082015161124660a0850182611136565b5060c082015161125960c08501826111a9565b5060e082015161126c60e08501826111c3565b50505050565b5f61127d83836111d2565b6101008301905092915050565b5f602082019050919050565b5f6112a0826110fe565b6112aa8185611108565b93506112b583611118565b805f5b838110156112e55781516112cc8882611272565b97506112d78361128a565b9250506001810190506112b8565b5085935050505092915050565b5f6020820190508181035f83015261130a8184611296565b905092915050565b5f5f604083850312156113285761132761101d565b5b5f61133585828601611067565b92505060206113468582860161109a565b9150509250929050565b61135981611040565b82525050565b6113688161107b565b82525050565b61137781611198565b82525050565b611386816111b8565b82525050565b5f610100820190506113a05f83018b611350565b6113ad602083018a611350565b6113ba604083018961135f565b6113c7606083018861135f565b6113d4608083018761135f565b6113e160a083018661135f565b6113ee60c083018561136e565b6113fb60e083018461137d565b9998505050505050505050565b5f60208201905061141b5f83018461135f565b92915050565b5f5f5f5f608085870312156114395761143861101d565b5b5f61144687828801611067565b94505060206114578782880161109a565b93505060406114688782880161109a565b92505060606114798782880161109a565b91505092959194509250565b7f4e487b71000000000000000000000000000000000000000000000000000000005f52603260045260245ffd5b5f82825260208201905092915050565b7f536869706d656e74206973206e6f7420696e20496e2d5472616e7369742073745f8201527f6174650000000000000000000000000000000000000000000000000000000000602082015250565b5f61151c6023836114b2565b9150611527826114c2565b604082019050919050565b5f6020820190508181035f83015261154981611510565b9050919050565b7f536869706d656e74206973206e6f7420696e2050656e64696e672073746174655f82015250565b5f6115846020836114b2565b915061158f82611550565b602082019050919050565b5f6020820190508181035f8301526115b181611578565b9050919050565b7f5061796d656e7420646f6573206e6f74206d61746368207468652070726963655f8201527f2075736572207365740000000000000000000000000000000000000000000000602082015250565b5f6116126029836114b2565b915061161d826115b8565b604082019050919050565b5f60608201905061163b5f83018561135f565b611648602083018461135f565b818103604083015261165981611606565b90509392505050565b7f4e487b71000000000000000000000000000000000000000000000000000000005f52601160045260245ffd5b5f6116998261107b565b91507fffffffffffffffffffffffffffffffffffffffffffffffffffffffffffffffff82036116cb576116ca611662565b5b600182019050919050565b5f6060820190506116e95f83018661135f565b6116f6602083018561135f565b611703604083018461135f565b94935050505056fea2646970667358221220513341c6c00c1150b6c2bd96552b5e08318d28f9c9570400e86a218138ee7bb364736f6c634300081c0033",
        "linkReferences": {}
    },
    "methodIdentifiers": {
        "completeShipment(address,address,uint256)": "179a878c",
        "createShipment(address,uint256,uint256,uint256)": "cbc4b181",
        "getAllTransactions()": "27506f53",
        "getShipment(address,uint256)": "8365da54",
        "shipmentCount()": "aace20b7",
        "shipments(address,uint256)": "5667e02f",
        "startShipment(address,address,uint256)": "7ff5265d"
    },
    "id": 16
}