{
    "abi": [
        {
            "type": "constructor",
            "inputs": [
                {
                    "name": "_sender",
                    "type": "address",
                    "internalType": "address"
                }
            ],
            "stateMutability": "nonpayable"
        },
        {
            "type": "function",
            "name": "completeShipment",
            "inputs": [
                {
                    "name": "_index",
                    "type": "uint256",
                    "internalType": "uint256"
                }
            ],
            "outputs": [],
            "stateMutability": "nonpayable"
        },
        {
            "type": "function",
            "name": "createShipment",
            "inputs": [
                {
                    "name": "_pickupTime",
                    "type": "uint256",
                    "internalType": "uint256"
                },
                {
                    "name": "_distance",
                    "type": "uint256",
                    "internalType": "uint256"
                },
                {
                    "name": "_price",
                    "type": "uint256",
                    "internalType": "uint256"
                }
            ],
            "outputs": [],
            "stateMutability": "payable"
        },
        {
            "type": "function",
            "name": "getShipment",
            "inputs": [
                {
                    "name": "_index",
                    "type": "uint256",
                    "internalType": "uint256"
                }
            ],
            "outputs": [
                {
                    "name": "",
                    "type": "address",
                    "internalType": "address"
                },
                {
                    "name": "",
                    "type": "address",
                    "internalType": "address"
                },
                {
                    "name": "",
                    "type": "uint256",
                    "internalType": "uint256"
                },
                {
                    "name": "",
                    "type": "uint256",
                    "internalType": "uint256"
                },
                {
                    "name": "",
                    "type": "uint256",
                    "internalType": "uint256"
                },
                {
                    "name": "",
                    "type": "uint256",
                    "internalType": "uint256"
                },
                {
                    "name": "",
                    "type": "uint8",
                    "internalType": "enum SupplyChain.ShipmentStatus"
                },
                {
                    "name": "",
                    "type": "bool",
                    "internalType": "bool"
                }
            ],
            "stateMutability": "view"
        },
        {
            "type": "function",
            "name": "getShipmentCount",
            "inputs": [
                {
                    "name": "_receiver",
                    "type": "address",
                    "internalType": "address"
                }
            ],
            "outputs": [
                {
                    "name": "",
                    "type": "uint256",
                    "internalType": "uint256"
                }
            ],
            "stateMutability": "view"
        },
        {
            "type": "function",
            "name": "sender",
            "inputs": [],
            "outputs": [
                {
                    "name": "",
                    "type": "address",
                    "internalType": "address"
                }
            ],
            "stateMutability": "view"
        },
        {
            "type": "function",
            "name": "shipments",
            "inputs": [
                {
                    "name": "",
                    "type": "address",
                    "internalType": "address"
                },
                {
                    "name": "",
                    "type": "uint256",
                    "internalType": "uint256"
                }
            ],
            "outputs": [
                {
                    "name": "sender",
                    "type": "address",
                    "internalType": "address"
                },
                {
                    "name": "receiver",
                    "type": "address",
                    "internalType": "address"
                },
                {
                    "name": "pickupTime",
                    "type": "uint256",
                    "internalType": "uint256"
                },
                {
                    "name": "deliveryTime",
                    "type": "uint256",
                    "internalType": "uint256"
                },
                {
                    "name": "distance",
                    "type": "uint256",
                    "internalType": "uint256"
                },
                {
                    "name": "price",
                    "type": "uint256",
                    "internalType": "uint256"
                },
                {
                    "name": "status",
                    "type": "uint8",
                    "internalType": "enum SupplyChain.ShipmentStatus"
                },
                {
                    "name": "isPaid",
                    "type": "bool",
                    "internalType": "bool"
                }
            ],
            "stateMutability": "view"
        },
        {
            "type": "function",
            "name": "startShipment",
            "inputs": [
                {
                    "name": "_index",
                    "type": "uint256",
                    "internalType": "uint256"
                }
            ],
            "outputs": [],
            "stateMutability": "nonpayable"
        },
        {
            "type": "event",
            "name": "ShipmentCreated",
            "inputs": [
                {
                    "name": "sender",
                    "type": "address",
                    "indexed": true,
                    "internalType": "address"
                },
                {
                    "name": "receiver",
                    "type": "address",
                    "indexed": true,
                    "internalType": "address"
                },
                {
                    "name": "pickupTime",
                    "type": "uint256",
                    "indexed": false,
                    "internalType": "uint256"
                },
                {
                    "name": "distance",
                    "type": "uint256",
                    "indexed": false,
                    "internalType": "uint256"
                },
                {
                    "name": "price",
                    "type": "uint256",
                    "indexed": false,
                    "internalType": "uint256"
                }
            ],
            "anonymous": false
        },
        {
            "type": "event",
            "name": "ShipmentDelivered",
            "inputs": [
                {
                    "name": "sender",
                    "type": "address",
                    "indexed": true,
                    "internalType": "address"
                },
                {
                    "name": "receiver",
                    "type": "address",
                    "indexed": true,
                    "internalType": "address"
                },
                {
                    "name": "deliveryTime",
                    "type": "uint256",
                    "indexed": false,
                    "internalType": "uint256"
                }
            ],
            "anonymous": false
        },
        {
            "type": "event",
            "name": "ShipmentInTransit",
            "inputs": [
                {
                    "name": "sender",
                    "type": "address",
                    "indexed": true,
                    "internalType": "address"
                },
                {
                    "name": "receiver",
                    "type": "address",
                    "indexed": true,
                    "internalType": "address"
                },
                {
                    "name": "pickupTime",
                    "type": "uint256",
                    "indexed": false,
                    "internalType": "uint256"
                }
            ],
            "anonymous": false
        },
        {
            "type": "event",
            "name": "ShipmentPaid",
            "inputs": [
                {
                    "name": "sender",
                    "type": "address",
                    "indexed": true,
                    "internalType": "address"
                },
                {
                    "name": "receiver",
                    "type": "address",
                    "indexed": true,
                    "internalType": "address"
                },
                {
                    "name": "amount",
                    "type": "uint256",
                    "indexed": false,
                    "internalType": "uint256"
                }
            ],
            "anonymous": false
        },
        {
            "type": "error",
            "name": "InvalidReceiver",
            "inputs": []
        },
        {
            "type": "error",
            "name": "PaymentDoesNotMatchPrice",
            "inputs": [
                {
                    "name": "amount",
                    "type": "uint256",
                    "internalType": "uint256"
                },
                {
                    "name": "price",
                    "type": "uint256",
                    "internalType": "uint256"
                },
                {
                    "name": "note",
                    "type": "string",
                    "internalType": "string"
                }
            ]
        },
        {
            "type": "error",
            "name": "ReentrancyGuardReentrantCall",
            "inputs": []
        },
        {
            "type": "error",
            "name": "ShipmentIsAlreadypaid",
            "inputs": []
        },
        {
            "type": "error",
            "name": "ShipmentNotInIntendedStatus",
            "inputs": [
                {
                    "name": "note",
                    "type": "string",
                    "internalType": "string"
                }
            ]
        }
    ],
    "bytecode": {
        "object": "0x60a060405234801561000f575f5ffd5b506040516112cd3803806112cd833981810160405281019061003191906100d0565b60015f819055508073ffffffffffffffffffffffffffffffffffffffff1660808173ffffffffffffffffffffffffffffffffffffffff1681525050506100fb565b5f5ffd5b5f73ffffffffffffffffffffffffffffffffffffffff82169050919050565b5f61009f82610076565b9050919050565b6100af81610095565b81146100b9575f5ffd5b50565b5f815190506100ca816100a6565b92915050565b5f602082840312156100e5576100e4610072565b5b5f6100f2848285016100bc565b91505092915050565b60805161119061013d5f395f81816104bf015281816105ea015281816106610152818161086f01528181610ab001528181610b2b0152610bb401526111905ff3fe60806040526004361061006f575f3560e01c806367e404ce1161004d57806367e404ce146101215780638b643db31461014b578063b7dfd93d14610167578063f15456b5146101a35761006f565b8063092b37401461007357806309abeffa146100b65780635667e02f146100de575b5f5ffd5b34801561007e575f5ffd5b5061009960048036038101906100949190610cb1565b6101cb565b6040516100ad989796959493929190610db7565b60405180910390f35b3480156100c1575f5ffd5b506100dc60048036038101906100d79190610cb1565b6103a6565b005b3480156100e9575f5ffd5b5061010460048036038101906100ff9190610e5d565b610533565b604051610118989796959493929190610db7565b60405180910390f35b34801561012c575f5ffd5b506101356105e8565b6040516101429190610e9b565b60405180910390f35b61016560048036038101906101609190610eb4565b61060c565b005b348015610172575f5ffd5b5061018d60048036038101906101889190610f04565b6108e5565b60405161019a9190610f2f565b60405180910390f35b3480156101ae575f5ffd5b506101c960048036038101906101c49190610cb1565b61092e565b005b5f5f5f5f5f5f5f5f5f60015f3373ffffffffffffffffffffffffffffffffffffffff1673ffffffffffffffffffffffffffffffffffffffff1681526020019081526020015f208a8154811061022357610222610f48565b5b905f5260205f209060070201604051806101000160405290815f82015f9054906101000a900473ffffffffffffffffffffffffffffffffffffffff1673ffffffffffffffffffffffffffffffffffffffff1673ffffffffffffffffffffffffffffffffffffffff168152602001600182015f9054906101000a900473ffffffffffffffffffffffffffffffffffffffff1673ffffffffffffffffffffffffffffffffffffffff1673ffffffffffffffffffffffffffffffffffffffff16815260200160028201548152602001600382015481526020016004820154815260200160058201548152602001600682015f9054906101000a900460ff1660028111156103305761032f610d2a565b5b600281111561034257610341610d2a565b5b81526020016006820160019054906101000a900460ff1615151515815250509050805f015181602001518260400151836060015184608001518560a001518660c001518760e001519850985098509850985098509850985050919395975091939597565b5f60015f3373ffffffffffffffffffffffffffffffffffffffff1673ffffffffffffffffffffffffffffffffffffffff1681526020019081526020015f2082815481106103f6576103f5610f48565b5b905f5260205f20906007020190505f600281111561041757610416610d2a565b5b816006015f9054906101000a900460ff16600281111561043a57610439610d2a565b5b1461047a576040517f5186bf6900000000000000000000000000000000000000000000000000000000815260040161047190610fcf565b60405180910390fd5b6001816006015f6101000a81548160ff021916908360028111156104a1576104a0610d2a565b5b02179055503373ffffffffffffffffffffffffffffffffffffffff167f000000000000000000000000000000000000000000000000000000000000000073ffffffffffffffffffffffffffffffffffffffff167faafab9f94340179ff9cefd29621e1772a4b8efab8023163838f1b0a8f6ce5df583600201546040516105279190610f2f565b60405180910390a35050565b6001602052815f5260405f20818154811061054c575f80fd5b905f5260205f2090600702015f9150915050805f015f9054906101000a900473ffffffffffffffffffffffffffffffffffffffff1690806001015f9054906101000a900473ffffffffffffffffffffffffffffffffffffffff1690806002015490806003015490806004015490806005015490806006015f9054906101000a900460ff16908060060160019054906101000a900460ff16905088565b7f000000000000000000000000000000000000000000000000000000000000000081565b8034146106525734816040517f73352ff400000000000000000000000000000000000000000000000000000000815260040161064992919061105d565b60405180910390fd5b5f6040518061010001604052807f000000000000000000000000000000000000000000000000000000000000000073ffffffffffffffffffffffffffffffffffffffff1681526020013373ffffffffffffffffffffffffffffffffffffffff1681526020018581526020015f81526020018481526020018381526020015f60028111156106e2576106e1610d2a565b5b81526020015f1515815250905060015f3373ffffffffffffffffffffffffffffffffffffffff1673ffffffffffffffffffffffffffffffffffffffff1681526020019081526020015f2081908060018154018082558091505060019003905f5260205f2090600702015f909190919091505f820151815f015f6101000a81548173ffffffffffffffffffffffffffffffffffffffff021916908373ffffffffffffffffffffffffffffffffffffffff1602179055506020820151816001015f6101000a81548173ffffffffffffffffffffffffffffffffffffffff021916908373ffffffffffffffffffffffffffffffffffffffff16021790555060408201518160020155606082015181600301556080820151816004015560a0820151816005015560c0820151816006015f6101000a81548160ff0219169083600281111561082f5761082e610d2a565b5b021790555060e08201518160060160016101000a81548160ff02191690831515021790555050503373ffffffffffffffffffffffffffffffffffffffff167f000000000000000000000000000000000000000000000000000000000000000073ffffffffffffffffffffffffffffffffffffffff167f5001b34ecf2db5b7bbeddcbbe761ec9ecadcc7638018b98ce3e24995b0e946b68686866040516108d793929190611097565b60405180910390a350505050565b5f60015f8373ffffffffffffffffffffffffffffffffffffffff1673ffffffffffffffffffffffffffffffffffffffff1681526020019081526020015f20805490509050919050565b610936610c2d565b5f60015f3373ffffffffffffffffffffffffffffffffffffffff1673ffffffffffffffffffffffffffffffffffffffff1681526020019081526020015f20828154811061098657610985610f48565b5b905f5260205f2090600702019050600160028111156109a8576109a7610d2a565b5b816006015f9054906101000a900460ff1660028111156109cb576109ca610d2a565b5b14610a0b576040517f5186bf69000000000000000000000000000000000000000000000000000000008152600401610a029061113c565b60405180910390fd5b8060060160019054906101000a900460ff1615610a54576040517ffd5fdf4600000000000000000000000000000000000000000000000000000000815260040160405180910390fd5b60018160060160016101000a81548160ff0219169083151502179055506002816006015f6101000a81548160ff02191690836002811115610a9857610a97610d2a565b5b02179055504281600301819055505f816005015490507f000000000000000000000000000000000000000000000000000000000000000073ffffffffffffffffffffffffffffffffffffffff166108fc8290811502906040515f60405180830381858888f19350505050158015610b11573d5f5f3e3d5ffd5b503373ffffffffffffffffffffffffffffffffffffffff167f000000000000000000000000000000000000000000000000000000000000000073ffffffffffffffffffffffffffffffffffffffff167f3746ccceb54f44c9b0ee0120e596168d07ec9f6ca303cfdd9810d3b2e2686a2e8460030154604051610b939190610f2f565b60405180910390a33373ffffffffffffffffffffffffffffffffffffffff167f000000000000000000000000000000000000000000000000000000000000000073ffffffffffffffffffffffffffffffffffffffff167f2b6f2473aebafaf8d0889669490135928ec4454d2e29a103fd39693bbca6aef183604051610c189190610f2f565b60405180910390a35050610c2a610c71565b50565b60025f5403610c68576040517f3ee5aeb500000000000000000000000000000000000000000000000000000000815260040160405180910390fd5b60025f81905550565b60015f81905550565b5f5ffd5b5f819050919050565b610c9081610c7e565b8114610c9a575f5ffd5b50565b5f81359050610cab81610c87565b92915050565b5f60208284031215610cc657610cc5610c7a565b5b5f610cd384828501610c9d565b91505092915050565b5f73ffffffffffffffffffffffffffffffffffffffff82169050919050565b5f610d0582610cdc565b9050919050565b610d1581610cfb565b82525050565b610d2481610c7e565b82525050565b7f4e487b71000000000000000000000000000000000000000000000000000000005f52602160045260245ffd5b60038110610d6857610d67610d2a565b5b50565b5f819050610d7882610d57565b919050565b5f610d8782610d6b565b9050919050565b610d9781610d7d565b82525050565b5f8115159050919050565b610db181610d9d565b82525050565b5f61010082019050610dcb5f83018b610d0c565b610dd8602083018a610d0c565b610de56040830189610d1b565b610df26060830188610d1b565b610dff6080830187610d1b565b610e0c60a0830186610d1b565b610e1960c0830185610d8e565b610e2660e0830184610da8565b9998505050505050505050565b610e3c81610cfb565b8114610e46575f5ffd5b50565b5f81359050610e5781610e33565b92915050565b5f5f60408385031215610e7357610e72610c7a565b5b5f610e8085828601610e49565b9250506020610e9185828601610c9d565b9150509250929050565b5f602082019050610eae5f830184610d0c565b92915050565b5f5f5f60608486031215610ecb57610eca610c7a565b5b5f610ed886828701610c9d565b9350506020610ee986828701610c9d565b9250506040610efa86828701610c9d565b9150509250925092565b5f60208284031215610f1957610f18610c7a565b5b5f610f2684828501610e49565b91505092915050565b5f602082019050610f425f830184610d1b565b92915050565b7f4e487b71000000000000000000000000000000000000000000000000000000005f52603260045260245ffd5b5f82825260208201905092915050565b7f536869706d656e74206973206e6f7420696e2050656e64696e672073746174655f82015250565b5f610fb9602083610f75565b9150610fc482610f85565b602082019050919050565b5f6020820190508181035f830152610fe681610fad565b9050919050565b7f5061796d656e7420646f6573206e6f74206d61746368207468652070726963655f8201527f2075736572207365740000000000000000000000000000000000000000000000602082015250565b5f611047602983610f75565b915061105282610fed565b604082019050919050565b5f6060820190506110705f830185610d1b565b61107d6020830184610d1b565b818103604083015261108e8161103b565b90509392505050565b5f6060820190506110aa5f830186610d1b565b6110b76020830185610d1b565b6110c46040830184610d1b565b949350505050565b7f536869706d656e74206973206e6f7420696e20496e2d5472616e7369742073745f8201527f6174650000000000000000000000000000000000000000000000000000000000602082015250565b5f611126602383610f75565b9150611131826110cc565b604082019050919050565b5f6020820190508181035f8301526111538161111a565b905091905056fea2646970667358221220642953337ccc446cf886f6d437bb57f15a15acfa84f4b26b36511c62a59d802564736f6c634300081c0033",
        "linkReferences": {}
    },
    "methodIdentifiers": {
        "completeShipment(uint256)": "f15456b5",
        "createShipment(uint256,uint256,uint256)": "8b643db3",
        "getShipment(uint256)": "092b3740",
        "getShipmentCount(address)": "b7dfd93d",
        "sender()": "67e404ce",
        "shipments(address,uint256)": "5667e02f",
        "startShipment(uint256)": "09abeffa"
    },
    "id": 20
}